{
  "contractName": "ZombieFactory",
  "abi": [
    {
      "anonymous": false,
      "inputs": [
        {
          "indexed": false,
          "internalType": "uint256",
          "name": "zombieId",
          "type": "uint256"
        },
        {
          "indexed": false,
          "internalType": "string",
          "name": "name",
          "type": "string"
        },
        {
          "indexed": false,
          "internalType": "uint256",
          "name": "dna",
          "type": "uint256"
        }
      ],
      "name": "NewZombie",
      "type": "event"
    },
    {
      "inputs": [
        {
          "internalType": "uint256",
          "name": "",
          "type": "uint256"
        }
      ],
      "name": "zombies",
      "outputs": [
        {
          "internalType": "string",
          "name": "name",
          "type": "string"
        },
        {
          "internalType": "uint256",
          "name": "dna",
          "type": "uint256"
        }
      ],
      "stateMutability": "view",
      "type": "function",
      "constant": true
    },
    {
      "inputs": [
        {
          "internalType": "string",
          "name": "_name",
          "type": "string"
        }
      ],
      "name": "createRandomZombie",
      "outputs": [],
      "stateMutability": "nonpayable",
      "type": "function"
    }
  ],
  "bytecode": "0x60806040526010600055600054600a6200001a91906200008c565b6001553480156200002a57600080fd5b506200020f565b6000808291508390505b600185111562000083578086048111156200005b576200005a620001d3565b5b60018516156200006b5780820291505b80810290506200007b8562000202565b94506200003b565b94509492505050565b60006200009982620001c9565b9150620000a683620001c9565b9250620000d57fffffffffffffffffffffffffffffffffffffffffffffffffffffffffffffffff8484620000dd565b905092915050565b600082620000ef5760019050620001c2565b81620000ff5760009050620001c2565b8160018114620001185760028114620001235762000159565b6001915050620001c2565b60ff841115620001385762000137620001d3565b5b8360020a915084821115620001525762000151620001d3565b5b50620001c2565b5060208310610133831016604e8410600b8410161715620001935782820a9050838111156200018d576200018c620001d3565b5b620001c2565b620001a2848484600162000031565b92509050818404811115620001bc57620001bb620001d3565b5b81810290505b9392505050565b6000819050919050565b7f4e487b7100000000000000000000000000000000000000000000000000000000600052601160045260246000fd5b60008160011c9050919050565b610796806200021f6000396000f3fe608060405234801561001057600080fd5b50600436106100365760003560e01c80632052465e1461003b5780637bff0a011461006c575b600080fd5b610055600480360381019061005091906103c4565b610088565b60405161006392919061047d565b60405180910390f35b61008660048036038101906100819190610383565b610144565b005b6002818154811061009857600080fd5b90600052602060002090600202016000915090508060000180546100bb906105e8565b80601f01602080910402602001604051908101604052809291908181526020018280546100e7906105e8565b80156101345780601f1061010957610100808354040283529160200191610134565b820191906000526020600020905b81548152906001019060200180831161011757829003601f168201915b5050505050908060010154905082565b600061014f8261015f565b905061015b82826101a4565b5050565b600080826040516020016101739190610466565b6040516020818303038152906040528051906020012060001c90506001548161019c919061064b565b915050919050565b600260405180604001604052808481526020018381525090806001815401808255809150506001900390600052602060002090600202016000909190919091506000820151816000019080519060200190610200929190610263565b50602082015181600101555050600060016002805490506102219190610568565b90507f88f026aacbbecc90c18411df4b1185fd8d9be2470f1962f192bf84a27d0704b7818484604051610256939291906104ad565b60405180910390a1505050565b82805461026f906105e8565b90600052602060002090601f01602090048101928261029157600085556102d8565b82601f106102aa57805160ff19168380011785556102d8565b828001600101855582156102d8579182015b828111156102d75782518255916020019190600101906102bc565b5b5090506102e591906102e9565b5090565b5b808211156103025760008160009055506001016102ea565b5090565b600061031961031484610510565b6104eb565b90508281526020810184848401111561033157600080fd5b61033c8482856105a6565b509392505050565b600082601f83011261035557600080fd5b8135610365848260208601610306565b91505092915050565b60008135905061037d81610749565b92915050565b60006020828403121561039557600080fd5b600082013567ffffffffffffffff8111156103af57600080fd5b6103bb84828501610344565b91505092915050565b6000602082840312156103d657600080fd5b60006103e48482850161036e565b91505092915050565b60006103f882610541565b610402818561054c565b93506104128185602086016105b5565b61041b81610738565b840191505092915050565b600061043182610541565b61043b818561055d565b935061044b8185602086016105b5565b80840191505092915050565b6104608161059c565b82525050565b60006104728284610426565b915081905092915050565b6000604082019050818103600083015261049781856103ed565b90506104a66020830184610457565b9392505050565b60006060820190506104c26000830186610457565b81810360208301526104d481856103ed565b90506104e36040830184610457565b949350505050565b60006104f5610506565b9050610501828261061a565b919050565b6000604051905090565b600067ffffffffffffffff82111561052b5761052a610709565b5b61053482610738565b9050602081019050919050565b600081519050919050565b600082825260208201905092915050565b600081905092915050565b60006105738261059c565b915061057e8361059c565b9250828210156105915761059061067c565b5b828203905092915050565b6000819050919050565b82818337600083830152505050565b60005b838110156105d35780820151818401526020810190506105b8565b838111156105e2576000848401525b50505050565b6000600282049050600182168061060057607f821691505b60208210811415610614576106136106da565b5b50919050565b61062382610738565b810181811067ffffffffffffffff8211171561064257610641610709565b5b80604052505050565b60006106568261059c565b91506106618361059c565b925082610671576106706106ab565b5b828206905092915050565b7f4e487b7100000000000000000000000000000000000000000000000000000000600052601160045260246000fd5b7f4e487b7100000000000000000000000000000000000000000000000000000000600052601260045260246000fd5b7f4e487b7100000000000000000000000000000000000000000000000000000000600052602260045260246000fd5b7f4e487b7100000000000000000000000000000000000000000000000000000000600052604160045260246000fd5b6000601f19601f8301169050919050565b6107528161059c565b811461075d57600080fd5b5056fea26469706673582212206e6f5f9f364ef98c0258a89325bc50c994732b0ad78e9028eaeeda6e787a9f5b64736f6c63430008040033",
  "immutableReferences": {},
  "source": "// SPDX-License-Identifier: MIT\npragma solidity >=0.5.0 <0.9.0;\n\ncontract ZombieFactory {\n  uint dnaDigits = 16;\n  uint dnaModulus = 10 ** dnaDigits;\n\n  event NewZombie(uint zombieId, string name, uint dna);\n\n  struct Zombie {\n    string name;\n    uint dna;\n  }\n\n  Zombie[] public zombies;\n  \n  function _createZombie(string memory _name, uint _dna) private {\n    zombies.push(Zombie(_name, _dna));\n    uint id = zombies.length - 1;\n    emit NewZombie(id, _name, _dna);\n  }\n\n  function _generateRandomDna(string memory _str) private view returns (uint) {\n    uint rand = uint(keccak256(abi.encodePacked(_str)));\n\n    return rand % dnaModulus;\n  }\n\n  function createRandomZombie(string memory _name) public {\n    uint randDna = _generateRandomDna(_name);\n    _createZombie(_name, randDna);\n  }\n\n\n\n}",
  "sourcePath": "/Users/pedrolucinda/Desktop/solidty/cryptozombies/contracts/ZombieFactory.sol",
  "compiler": {
    "name": "solc",
    "version": "0.8.4+commit.c7e474f2.Emscripten.clang"
  },
  "schemaVersion": "3.4.6",
  "updatedAt": "2022-03-19T00:50:44.544Z",
  "networkType": "ethereum",
  "devdoc": {
    "kind": "dev",
    "methods": {},
    "version": 1
  },
  "userdoc": {
    "kind": "user",
    "methods": {},
    "version": 1
  }
}