{
  "contractName": "ZombieFactory",
  "abi": [
    {
      "anonymous": false,
      "inputs": [
        {
          "indexed": false,
          "internalType": "uint256",
          "name": "zombieId",
          "type": "uint256"
        },
        {
          "indexed": false,
          "internalType": "string",
          "name": "name",
          "type": "string"
        },
        {
          "indexed": false,
          "internalType": "uint256",
          "name": "dna",
          "type": "uint256"
        }
      ],
      "name": "NewZombie",
      "type": "event"
    },
    {
      "anonymous": false,
      "inputs": [
        {
          "indexed": true,
          "internalType": "address",
          "name": "previousOwner",
          "type": "address"
        },
        {
          "indexed": true,
          "internalType": "address",
          "name": "newOwner",
          "type": "address"
        }
      ],
      "name": "OwnershipTransferred",
      "type": "event"
    },
    {
      "inputs": [],
      "name": "owner",
      "outputs": [
        {
          "internalType": "address",
          "name": "",
          "type": "address"
        }
      ],
      "stateMutability": "view",
      "type": "function",
      "constant": true
    },
    {
      "inputs": [],
      "name": "renounceOwnership",
      "outputs": [],
      "stateMutability": "nonpayable",
      "type": "function"
    },
    {
      "inputs": [
        {
          "internalType": "address",
          "name": "newOwner",
          "type": "address"
        }
      ],
      "name": "transferOwnership",
      "outputs": [],
      "stateMutability": "nonpayable",
      "type": "function"
    },
    {
      "inputs": [
        {
          "internalType": "uint256",
          "name": "",
          "type": "uint256"
        }
      ],
      "name": "zombieToOwner",
      "outputs": [
        {
          "internalType": "address",
          "name": "",
          "type": "address"
        }
      ],
      "stateMutability": "view",
      "type": "function",
      "constant": true
    },
    {
      "inputs": [
        {
          "internalType": "uint256",
          "name": "",
          "type": "uint256"
        }
      ],
      "name": "zombies",
      "outputs": [
        {
          "internalType": "string",
          "name": "name",
          "type": "string"
        },
        {
          "internalType": "uint256",
          "name": "dna",
          "type": "uint256"
        },
        {
          "internalType": "uint32",
          "name": "level",
          "type": "uint32"
        },
        {
          "internalType": "uint32",
          "name": "readyTime",
          "type": "uint32"
        }
      ],
      "stateMutability": "view",
      "type": "function",
      "constant": true
    },
    {
      "inputs": [
        {
          "internalType": "string",
          "name": "_name",
          "type": "string"
        }
      ],
      "name": "createRandomZombie",
      "outputs": [],
      "stateMutability": "nonpayable",
      "type": "function"
    }
  ],
  "bytecode": "0x60806040526010600155600154600a6200001a91906200017f565b600255620151806003553480156200003157600080fd5b5062000052620000466200005860201b60201c565b6200006060201b60201c565b62000302565b600033905090565b60008060009054906101000a900473ffffffffffffffffffffffffffffffffffffffff169050816000806101000a81548173ffffffffffffffffffffffffffffffffffffffff021916908373ffffffffffffffffffffffffffffffffffffffff1602179055508173ffffffffffffffffffffffffffffffffffffffff168173ffffffffffffffffffffffffffffffffffffffff167f8be0079c531659141344cd1fd0a4f28419497f9722a3daafe3b4186f6b6457e060405160405180910390a35050565b6000808291508390505b600185111562000176578086048111156200014e576200014d620002c6565b5b60018516156200015e5780820291505b80810290506200016e85620002f5565b94506200012e565b94509492505050565b60006200018c82620002bc565b91506200019983620002bc565b9250620001c87fffffffffffffffffffffffffffffffffffffffffffffffffffffffffffffffff8484620001d0565b905092915050565b600082620001e25760019050620002b5565b81620001f25760009050620002b5565b81600181146200020b576002811462000216576200024c565b6001915050620002b5565b60ff8411156200022b576200022a620002c6565b5b8360020a915084821115620002455762000244620002c6565b5b50620002b5565b5060208310610133831016604e8410600b8410161715620002865782820a90508381111562000280576200027f620002c6565b5b620002b5565b62000295848484600162000124565b92509050818404811115620002af57620002ae620002c6565b5b81810290505b9392505050565b6000819050919050565b7f4e487b7100000000000000000000000000000000000000000000000000000000600052601160045260246000fd5b60008160011c9050919050565b610f1680620003126000396000f3fe608060405234801561001057600080fd5b50600436106100625760003560e01c80632052465e14610067578063528b7b8f1461009a578063715018a6146100ca5780637bff0a01146100d45780638da5cb5b146100f0578063f2fde38b1461010e575b600080fd5b610081600480360381019061007c91906108f9565b61012a565b6040516100919493929190610a31565b60405180910390f35b6100b460048036038101906100af91906108f9565b610212565b6040516100c19190610a16565b60405180910390f35b6100d2610245565b005b6100ee60048036038101906100e991906108b8565b6102cd565b005b6100f861034e565b6040516101059190610a16565b60405180910390f35b6101286004803603810190610123919061088f565b610377565b005b6004818154811061013a57600080fd5b906000526020600020906003020160009150905080600001805461015d90610c90565b80601f016020809104026020016040519081016040528092919081815260200182805461018990610c90565b80156101d65780601f106101ab576101008083540402835291602001916101d6565b820191906000526020600020905b8154815290600101906020018083116101b957829003601f168201915b5050505050908060010154908060020160009054906101000a900463ffffffff16908060020160049054906101000a900463ffffffff16905084565b60056020528060005260406000206000915054906101000a900473ffffffffffffffffffffffffffffffffffffffff1681565b61024d61046f565b73ffffffffffffffffffffffffffffffffffffffff1661026b61034e565b73ffffffffffffffffffffffffffffffffffffffff16146102c1576040517f08c379a00000000000000000000000000000000000000000000000000000000081526004016102b890610a9d565b60405180910390fd5b6102cb6000610477565b565b6000600660003373ffffffffffffffffffffffffffffffffffffffff1673ffffffffffffffffffffffffffffffffffffffff168152602001908152602001600020541461031957600080fd5b60006103248261053b565b90506064816103339190610d3c565b8161033e9190610bce565b905061034a8282610580565b5050565b60008060009054906101000a900473ffffffffffffffffffffffffffffffffffffffff16905090565b61037f61046f565b73ffffffffffffffffffffffffffffffffffffffff1661039d61034e565b73ffffffffffffffffffffffffffffffffffffffff16146103f3576040517f08c379a00000000000000000000000000000000000000000000000000000000081526004016103ea90610a9d565b60405180910390fd5b600073ffffffffffffffffffffffffffffffffffffffff168173ffffffffffffffffffffffffffffffffffffffff161415610463576040517f08c379a000000000000000000000000000000000000000000000000000000000815260040161045a90610a7d565b60405180910390fd5b61046c81610477565b50565b600033905090565b60008060009054906101000a900473ffffffffffffffffffffffffffffffffffffffff169050816000806101000a81548173ffffffffffffffffffffffffffffffffffffffff021916908373ffffffffffffffffffffffffffffffffffffffff1602179055508173ffffffffffffffffffffffffffffffffffffffff168173ffffffffffffffffffffffffffffffffffffffff167f8be0079c531659141344cd1fd0a4f28419497f9722a3daafe3b4186f6b6457e060405160405180910390a35050565b6000808260405160200161054f91906109ff565b6040516020818303038152906040528051906020012060001c9050600254816105789190610d3c565b915050919050565b60046040518060800160405280848152602001838152602001600163ffffffff168152602001600354426105b49190610b78565b63ffffffff168152509080600181540180825580915050600190039060005260206000209060030201600090919091909150600082015181600001908051906020019061060292919061075a565b506020820151816001015560408201518160020160006101000a81548163ffffffff021916908363ffffffff16021790555060608201518160020160046101000a81548163ffffffff021916908363ffffffff1602179055505050600060016004805490506106719190610bce565b9050336005600083815260200190815260200160002060006101000a81548173ffffffffffffffffffffffffffffffffffffffff021916908373ffffffffffffffffffffffffffffffffffffffff160217905550600660003373ffffffffffffffffffffffffffffffffffffffff1673ffffffffffffffffffffffffffffffffffffffff168152602001908152602001600020600081548092919061071590610cf3565b91905055507f88f026aacbbecc90c18411df4b1185fd8d9be2470f1962f192bf84a27d0704b781848460405161074d93929190610abd565b60405180910390a1505050565b82805461076690610c90565b90600052602060002090601f01602090048101928261078857600085556107cf565b82601f106107a157805160ff19168380011785556107cf565b828001600101855582156107cf579182015b828111156107ce5782518255916020019190600101906107b3565b5b5090506107dc91906107e0565b5090565b5b808211156107f95760008160009055506001016107e1565b5090565b600061081061080b84610b20565b610afb565b90508281526020810184848401111561082857600080fd5b610833848285610c4e565b509392505050565b60008135905061084a81610eb2565b92915050565b600082601f83011261086157600080fd5b81356108718482602086016107fd565b91505092915050565b60008135905061088981610ec9565b92915050565b6000602082840312156108a157600080fd5b60006108af8482850161083b565b91505092915050565b6000602082840312156108ca57600080fd5b600082013567ffffffffffffffff8111156108e457600080fd5b6108f084828501610850565b91505092915050565b60006020828403121561090b57600080fd5b60006109198482850161087a565b91505092915050565b61092b81610c02565b82525050565b600061093c82610b51565b6109468185610b5c565b9350610956818560208601610c5d565b61095f81610e29565b840191505092915050565b600061097582610b51565b61097f8185610b6d565b935061098f818560208601610c5d565b80840191505092915050565b60006109a8602683610b5c565b91506109b382610e3a565b604082019050919050565b60006109cb602083610b5c565b91506109d682610e89565b602082019050919050565b6109ea81610c34565b82525050565b6109f981610c3e565b82525050565b6000610a0b828461096a565b915081905092915050565b6000602082019050610a2b6000830184610922565b92915050565b60006080820190508181036000830152610a4b8187610931565b9050610a5a60208301866109e1565b610a6760408301856109f0565b610a7460608301846109f0565b95945050505050565b60006020820190508181036000830152610a968161099b565b9050919050565b60006020820190508181036000830152610ab6816109be565b9050919050565b6000606082019050610ad260008301866109e1565b8181036020830152610ae48185610931565b9050610af360408301846109e1565b949350505050565b6000610b05610b16565b9050610b118282610cc2565b919050565b6000604051905090565b600067ffffffffffffffff821115610b3b57610b3a610dfa565b5b610b4482610e29565b9050602081019050919050565b600081519050919050565b600082825260208201905092915050565b600081905092915050565b6000610b8382610c34565b9150610b8e83610c34565b9250827fffffffffffffffffffffffffffffffffffffffffffffffffffffffffffffffff03821115610bc357610bc2610d6d565b5b828201905092915050565b6000610bd982610c34565b9150610be483610c34565b925082821015610bf757610bf6610d6d565b5b828203905092915050565b6000610c0d82610c14565b9050919050565b600073ffffffffffffffffffffffffffffffffffffffff82169050919050565b6000819050919050565b600063ffffffff82169050919050565b82818337600083830152505050565b60005b83811015610c7b578082015181840152602081019050610c60565b83811115610c8a576000848401525b50505050565b60006002820490506001821680610ca857607f821691505b60208210811415610cbc57610cbb610dcb565b5b50919050565b610ccb82610e29565b810181811067ffffffffffffffff82111715610cea57610ce9610dfa565b5b80604052505050565b6000610cfe82610c34565b91507fffffffffffffffffffffffffffffffffffffffffffffffffffffffffffffffff821415610d3157610d30610d6d565b5b600182019050919050565b6000610d4782610c34565b9150610d5283610c34565b925082610d6257610d61610d9c565b5b828206905092915050565b7f4e487b7100000000000000000000000000000000000000000000000000000000600052601160045260246000fd5b7f4e487b7100000000000000000000000000000000000000000000000000000000600052601260045260246000fd5b7f4e487b7100000000000000000000000000000000000000000000000000000000600052602260045260246000fd5b7f4e487b7100000000000000000000000000000000000000000000000000000000600052604160045260246000fd5b6000601f19601f8301169050919050565b7f4f776e61626c653a206e6577206f776e657220697320746865207a65726f206160008201527f6464726573730000000000000000000000000000000000000000000000000000602082015250565b7f4f776e61626c653a2063616c6c6572206973206e6f7420746865206f776e6572600082015250565b610ebb81610c02565b8114610ec657600080fd5b50565b610ed281610c34565b8114610edd57600080fd5b5056fea26469706673582212200d990c65f2eb6585bc57887ce70b1d69904547b7743d3f3f5fd5dcc835c488d164736f6c63430008040033",
  "immutableReferences": {},
  "source": "// SPDX-License-Identifier: MIT\r\npragma solidity >=0.5.0 <0.9.0;\r\nimport \"@openzeppelin/contracts/access/Ownable.sol\";\r\ncontract ZombieFactory is Ownable {\r\n\r\n    event NewZombie(uint zombieId, string name, uint dna);\r\n\r\n    uint dnaDigits = 16;\r\n    uint dnaModulus = 10 ** dnaDigits;\r\n    uint cooldownTime = 1 days;\r\n\r\n    struct Zombie {\r\n      string name;\r\n      uint dna;\r\n      uint32 level;\r\n      uint32 readyTime;\r\n    }\r\n\r\n    Zombie[] public zombies;\r\n\r\n    mapping (uint => address) public zombieToOwner;\r\n    mapping (address => uint) ownerZombieCount;\r\n\r\n   function _createZombie(string memory _name, uint _dna) internal {\r\n    zombies.push(Zombie(_name, _dna, 1, uint32(block.timestamp + cooldownTime)));\r\n    uint id = zombies.length - 1;\r\n    zombieToOwner[id] = msg.sender;\r\n    ownerZombieCount[msg.sender]++;\r\n    emit NewZombie(id, _name, _dna);\r\n  } \r\n\r\n    function _generateRandomDna(string memory _str) private view returns (uint) {\r\n        uint rand = uint(keccak256(abi.encodePacked(_str)));\r\n        return rand % dnaModulus;\r\n    }\r\n\r\n    function createRandomZombie(string memory _name) public {\r\n        require(ownerZombieCount[msg.sender] == 0);\r\n        uint randDna = _generateRandomDna(_name);\r\n        randDna = randDna - randDna % 100;\r\n        _createZombie(_name, randDna);\r\n    }\r\n\r\n}\r\n",
  "sourcePath": "/home/pedrolucinda/repos/solidity/zombies_eth_web3/contracts/ZombieFactory.sol",
  "compiler": {
    "name": "solc",
    "version": "0.8.4+commit.c7e474f2.Emscripten.clang"
  },
  "schemaVersion": "3.4.4",
  "updatedAt": "2022-04-26T22:37:24.266Z",
  "networkType": "ethereum",
  "devdoc": {
    "kind": "dev",
    "methods": {
      "owner()": {
        "details": "Returns the address of the current owner."
      },
      "renounceOwnership()": {
        "details": "Leaves the contract without owner. It will not be possible to call `onlyOwner` functions anymore. Can only be called by the current owner. NOTE: Renouncing ownership will leave the contract without an owner, thereby removing any functionality that is only available to the owner."
      },
      "transferOwnership(address)": {
        "details": "Transfers ownership of the contract to a new account (`newOwner`). Can only be called by the current owner."
      }
    },
    "version": 1
  },
  "userdoc": {
    "kind": "user",
    "methods": {},
    "version": 1
  }
}