{
  "contractName": "ZombieFactory",
  "abi": [
    {
      "anonymous": false,
      "inputs": [
        {
          "indexed": false,
          "internalType": "uint256",
          "name": "zombieId",
          "type": "uint256"
        },
        {
          "indexed": false,
          "internalType": "string",
          "name": "name",
          "type": "string"
        },
        {
          "indexed": false,
          "internalType": "uint256",
          "name": "dna",
          "type": "uint256"
        }
      ],
      "name": "NewZombie",
      "type": "event"
    },
    {
      "anonymous": false,
      "inputs": [
        {
          "indexed": true,
          "internalType": "address",
          "name": "previousOwner",
          "type": "address"
        },
        {
          "indexed": true,
          "internalType": "address",
          "name": "newOwner",
          "type": "address"
        }
      ],
      "name": "OwnershipTransferred",
      "type": "event"
    },
    {
      "inputs": [],
      "name": "isOwner",
      "outputs": [
        {
          "internalType": "bool",
          "name": "",
          "type": "bool"
        }
      ],
      "stateMutability": "view",
      "type": "function",
      "constant": true
    },
    {
      "inputs": [],
      "name": "owner",
      "outputs": [
        {
          "internalType": "address",
          "name": "",
          "type": "address"
        }
      ],
      "stateMutability": "view",
      "type": "function",
      "constant": true
    },
    {
      "inputs": [],
      "name": "renounceOwnership",
      "outputs": [],
      "stateMutability": "nonpayable",
      "type": "function"
    },
    {
      "inputs": [
        {
          "internalType": "address",
          "name": "newOwner",
          "type": "address"
        }
      ],
      "name": "transferOwnership",
      "outputs": [],
      "stateMutability": "nonpayable",
      "type": "function"
    },
    {
      "inputs": [
        {
          "internalType": "uint256",
          "name": "",
          "type": "uint256"
        }
      ],
      "name": "zombieToOwner",
      "outputs": [
        {
          "internalType": "address",
          "name": "",
          "type": "address"
        }
      ],
      "stateMutability": "view",
      "type": "function",
      "constant": true
    },
    {
      "inputs": [
        {
          "internalType": "uint256",
          "name": "",
          "type": "uint256"
        }
      ],
      "name": "zombies",
      "outputs": [
        {
          "internalType": "string",
          "name": "name",
          "type": "string"
        },
        {
          "internalType": "uint256",
          "name": "dna",
          "type": "uint256"
        },
        {
          "internalType": "uint32",
          "name": "level",
          "type": "uint32"
        },
        {
          "internalType": "uint32",
          "name": "readyTime",
          "type": "uint32"
        }
      ],
      "stateMutability": "view",
      "type": "function",
      "constant": true
    },
    {
      "inputs": [
        {
          "internalType": "string",
          "name": "_name",
          "type": "string"
        }
      ],
      "name": "createRandomZombie",
      "outputs": [],
      "stateMutability": "nonpayable",
      "type": "function"
    }
  ],
  "bytecode": "0x60806040526010600155600154600a6200001a91906200014e565b600255620151806003553480156200003157600080fd5b50336000806101000a81548173ffffffffffffffffffffffffffffffffffffffff021916908373ffffffffffffffffffffffffffffffffffffffff16021790555060008054906101000a900473ffffffffffffffffffffffffffffffffffffffff1673ffffffffffffffffffffffffffffffffffffffff16600073ffffffffffffffffffffffffffffffffffffffff167f8be0079c531659141344cd1fd0a4f28419497f9722a3daafe3b4186f6b6457e060405160405180910390a3620002d1565b6000808291508390505b600185111562000145578086048111156200011d576200011c62000295565b5b60018516156200012d5780820291505b80810290506200013d85620002c4565b9450620000fd565b94509492505050565b60006200015b826200028b565b915062000168836200028b565b9250620001977fffffffffffffffffffffffffffffffffffffffffffffffffffffffffffffffff84846200019f565b905092915050565b600082620001b1576001905062000284565b81620001c1576000905062000284565b8160018114620001da5760028114620001e5576200021b565b600191505062000284565b60ff841115620001fa57620001f962000295565b5b8360020a91508482111562000214576200021362000295565b5b5062000284565b5060208310610133831016604e8410600b8410161715620002555782820a9050838111156200024f576200024e62000295565b5b62000284565b620002648484846001620000f3565b925090508184048111156200027e576200027d62000295565b5b81810290505b9392505050565b6000819050919050565b7f4e487b7100000000000000000000000000000000000000000000000000000000600052601160045260246000fd5b60008160011c9050919050565b610e7580620002e16000396000f3fe608060405234801561001057600080fd5b506004361061007d5760003560e01c80637bff0a011161005b5780637bff0a01146100ef5780638da5cb5b1461010b5780638f32d59b14610129578063f2fde38b146101475761007d565b80632052465e14610082578063528b7b8f146100b5578063715018a6146100e5575b600080fd5b61009c60048036038101906100979190610920565b610163565b6040516100ac9493929190610a3c565b60405180910390f35b6100cf60048036038101906100ca9190610920565b61024b565b6040516100dc9190610a06565b60405180910390f35b6100ed61027e565b005b610109600480360381019061010491906108df565b61034d565b005b6101136103ce565b6040516101209190610a06565b60405180910390f35b6101316103f7565b60405161013e9190610a21565b60405180910390f35b610161600480360381019061015c91906108b6565b61044e565b005b6004818154811061017357600080fd5b906000526020600020906003020160009150905080600001805461019690610c67565b80601f01602080910402602001604051908101604052809291908181526020018280546101c290610c67565b801561020f5780601f106101e45761010080835404028352916020019161020f565b820191906000526020600020905b8154815290600101906020018083116101f257829003601f168201915b5050505050908060010154908060020160009054906101000a900463ffffffff16908060020160049054906101000a900463ffffffff16905084565b60056020528060005260406000206000915054906101000a900473ffffffffffffffffffffffffffffffffffffffff1681565b6102866103f7565b61028f57600080fd5b600073ffffffffffffffffffffffffffffffffffffffff1660008054906101000a900473ffffffffffffffffffffffffffffffffffffffff1673ffffffffffffffffffffffffffffffffffffffff167f8be0079c531659141344cd1fd0a4f28419497f9722a3daafe3b4186f6b6457e060405160405180910390a360008060006101000a81548173ffffffffffffffffffffffffffffffffffffffff021916908373ffffffffffffffffffffffffffffffffffffffff160217905550565b6000600660003373ffffffffffffffffffffffffffffffffffffffff1673ffffffffffffffffffffffffffffffffffffffff168152602001908152602001600020541461039957600080fd5b60006103a48261046b565b90506064816103b39190610d13565b816103be9190610b99565b90506103ca82826104b0565b5050565b60008060009054906101000a900473ffffffffffffffffffffffffffffffffffffffff16905090565b60008060009054906101000a900473ffffffffffffffffffffffffffffffffffffffff1673ffffffffffffffffffffffffffffffffffffffff163373ffffffffffffffffffffffffffffffffffffffff1614905090565b6104566103f7565b61045f57600080fd5b6104688161068a565b50565b6000808260405160200161047f91906109ef565b6040516020818303038152906040528051906020012060001c9050600254816104a89190610d13565b915050919050565b60046040518060800160405280848152602001838152602001600163ffffffff168152602001600354426104e49190610b43565b63ffffffff1681525090806001815401808255809150506001900390600052602060002090600302016000909190919091506000820151816000019080519060200190610532929190610781565b506020820151816001015560408201518160020160006101000a81548163ffffffff021916908363ffffffff16021790555060608201518160020160046101000a81548163ffffffff021916908363ffffffff1602179055505050600060016004805490506105a19190610b99565b9050336005600083815260200190815260200160002060006101000a81548173ffffffffffffffffffffffffffffffffffffffff021916908373ffffffffffffffffffffffffffffffffffffffff160217905550600660003373ffffffffffffffffffffffffffffffffffffffff1673ffffffffffffffffffffffffffffffffffffffff168152602001908152602001600020600081548092919061064590610cca565b91905055507f88f026aacbbecc90c18411df4b1185fd8d9be2470f1962f192bf84a27d0704b781848460405161067d93929190610a88565b60405180910390a1505050565b600073ffffffffffffffffffffffffffffffffffffffff168173ffffffffffffffffffffffffffffffffffffffff1614156106c457600080fd5b8073ffffffffffffffffffffffffffffffffffffffff1660008054906101000a900473ffffffffffffffffffffffffffffffffffffffff1673ffffffffffffffffffffffffffffffffffffffff167f8be0079c531659141344cd1fd0a4f28419497f9722a3daafe3b4186f6b6457e060405160405180910390a3806000806101000a81548173ffffffffffffffffffffffffffffffffffffffff021916908373ffffffffffffffffffffffffffffffffffffffff16021790555050565b82805461078d90610c67565b90600052602060002090601f0160209004810192826107af57600085556107f6565b82601f106107c857805160ff19168380011785556107f6565b828001600101855582156107f6579182015b828111156107f55782518255916020019190600101906107da565b5b5090506108039190610807565b5090565b5b80821115610820576000816000905550600101610808565b5090565b600061083761083284610aeb565b610ac6565b90508281526020810184848401111561084f57600080fd5b61085a848285610c25565b509392505050565b60008135905061087181610e11565b92915050565b600082601f83011261088857600080fd5b8135610898848260208601610824565b91505092915050565b6000813590506108b081610e28565b92915050565b6000602082840312156108c857600080fd5b60006108d684828501610862565b91505092915050565b6000602082840312156108f157600080fd5b600082013567ffffffffffffffff81111561090b57600080fd5b61091784828501610877565b91505092915050565b60006020828403121561093257600080fd5b6000610940848285016108a1565b91505092915050565b61095281610bcd565b82525050565b61096181610bdf565b82525050565b600061097282610b1c565b61097c8185610b27565b935061098c818560208601610c34565b61099581610e00565b840191505092915050565b60006109ab82610b1c565b6109b58185610b38565b93506109c5818560208601610c34565b80840191505092915050565b6109da81610c0b565b82525050565b6109e981610c15565b82525050565b60006109fb82846109a0565b915081905092915050565b6000602082019050610a1b6000830184610949565b92915050565b6000602082019050610a366000830184610958565b92915050565b60006080820190508181036000830152610a568187610967565b9050610a6560208301866109d1565b610a7260408301856109e0565b610a7f60608301846109e0565b95945050505050565b6000606082019050610a9d60008301866109d1565b8181036020830152610aaf8185610967565b9050610abe60408301846109d1565b949350505050565b6000610ad0610ae1565b9050610adc8282610c99565b919050565b6000604051905090565b600067ffffffffffffffff821115610b0657610b05610dd1565b5b610b0f82610e00565b9050602081019050919050565b600081519050919050565b600082825260208201905092915050565b600081905092915050565b6000610b4e82610c0b565b9150610b5983610c0b565b9250827fffffffffffffffffffffffffffffffffffffffffffffffffffffffffffffffff03821115610b8e57610b8d610d44565b5b828201905092915050565b6000610ba482610c0b565b9150610baf83610c0b565b925082821015610bc257610bc1610d44565b5b828203905092915050565b6000610bd882610beb565b9050919050565b60008115159050919050565b600073ffffffffffffffffffffffffffffffffffffffff82169050919050565b6000819050919050565b600063ffffffff82169050919050565b82818337600083830152505050565b60005b83811015610c52578082015181840152602081019050610c37565b83811115610c61576000848401525b50505050565b60006002820490506001821680610c7f57607f821691505b60208210811415610c9357610c92610da2565b5b50919050565b610ca282610e00565b810181811067ffffffffffffffff82111715610cc157610cc0610dd1565b5b80604052505050565b6000610cd582610c0b565b91507fffffffffffffffffffffffffffffffffffffffffffffffffffffffffffffffff821415610d0857610d07610d44565b5b600182019050919050565b6000610d1e82610c0b565b9150610d2983610c0b565b925082610d3957610d38610d73565b5b828206905092915050565b7f4e487b7100000000000000000000000000000000000000000000000000000000600052601160045260246000fd5b7f4e487b7100000000000000000000000000000000000000000000000000000000600052601260045260246000fd5b7f4e487b7100000000000000000000000000000000000000000000000000000000600052602260045260246000fd5b7f4e487b7100000000000000000000000000000000000000000000000000000000600052604160045260246000fd5b6000601f19601f8301169050919050565b610e1a81610bcd565b8114610e2557600080fd5b50565b610e3181610c0b565b8114610e3c57600080fd5b5056fea2646970667358221220981ba9fa6aff37e66a1ea378272cece2b4f1703de640f6382d50b7d5725a932a64736f6c63430008040033",
  "immutableReferences": {},
  "source": "// SPDX-License-Identifier: MIT\npragma solidity >=0.5.0 <0.9.0;\nimport \"./ownable.sol\";\n\ncontract ZombieFactory is Ownable {\n\n    event NewZombie(uint zombieId, string name, uint dna);\n\n    uint dnaDigits = 16;\n    uint dnaModulus = 10 ** dnaDigits;\n    uint cooldownTime = 1 days;\n\n    struct Zombie {\n      string name;\n      uint dna;\n      uint32 level;\n      uint32 readyTime;\n    }\n\n    Zombie[] public zombies;\n\n    mapping (uint => address) public zombieToOwner;\n    mapping (address => uint) ownerZombieCount;\n\n   function _createZombie(string memory _name, uint _dna) internal {\n    zombies.push(Zombie(_name, _dna, 1, uint32(block.timestamp + cooldownTime)));\n    uint id = zombies.length - 1;\n    zombieToOwner[id] = msg.sender;\n    ownerZombieCount[msg.sender]++;\n    emit NewZombie(id, _name, _dna);\n  }\n\n    function _generateRandomDna(string memory _str) private view returns (uint) {\n        uint rand = uint(keccak256(abi.encodePacked(_str)));\n        return rand % dnaModulus;\n    }\n\n    function createRandomZombie(string memory _name) public {\n        require(ownerZombieCount[msg.sender] == 0);\n        uint randDna = _generateRandomDna(_name);\n        randDna = randDna - randDna % 100;\n        _createZombie(_name, randDna);\n    }\n\n}\n",
  "sourcePath": "/Users/pedrolucinda/Desktop/repositories/solidty/cryptozombies/contracts/ZombieFactory.sol",
  "compiler": {
    "name": "solc",
    "version": "0.8.4+commit.c7e474f2.Emscripten.clang"
  },
  "schemaVersion": "3.4.6",
  "updatedAt": "2022-03-31T00:57:01.134Z",
  "networkType": "ethereum",
  "devdoc": {
    "kind": "dev",
    "methods": {
      "isOwner()": {
        "returns": {
          "_0": "true if `msg.sender` is the owner of the contract."
        }
      },
      "owner()": {
        "returns": {
          "_0": "the address of the owner."
        }
      },
      "renounceOwnership()": {
        "details": "Allows the current owner to relinquish control of the contract."
      },
      "transferOwnership(address)": {
        "details": "Allows the current owner to transfer control of the contract to a newOwner.",
        "params": {
          "newOwner": "The address to transfer ownership to."
        }
      }
    },
    "version": 1
  },
  "userdoc": {
    "kind": "user",
    "methods": {
      "renounceOwnership()": {
        "notice": "Renouncing to ownership will leave the contract without an owner. It will not be possible to call the functions with the `onlyOwner` modifier anymore."
      }
    },
    "version": 1
  }
}