{
  "contractName": "ZombieFeeding",
  "abi": [
    {
      "anonymous": false,
      "inputs": [
        {
          "indexed": false,
          "internalType": "uint256",
          "name": "zombieId",
          "type": "uint256"
        },
        {
          "indexed": false,
          "internalType": "string",
          "name": "name",
          "type": "string"
        },
        {
          "indexed": false,
          "internalType": "uint256",
          "name": "dna",
          "type": "uint256"
        }
      ],
      "name": "NewZombie",
      "type": "event"
    },
    {
      "anonymous": false,
      "inputs": [
        {
          "indexed": true,
          "internalType": "address",
          "name": "previousOwner",
          "type": "address"
        },
        {
          "indexed": true,
          "internalType": "address",
          "name": "newOwner",
          "type": "address"
        }
      ],
      "name": "OwnershipTransferred",
      "type": "event"
    },
    {
      "inputs": [
        {
          "internalType": "string",
          "name": "_name",
          "type": "string"
        }
      ],
      "name": "createRandomZombie",
      "outputs": [],
      "stateMutability": "nonpayable",
      "type": "function"
    },
    {
      "inputs": [],
      "name": "isOwner",
      "outputs": [
        {
          "internalType": "bool",
          "name": "",
          "type": "bool"
        }
      ],
      "stateMutability": "view",
      "type": "function",
      "constant": true
    },
    {
      "inputs": [],
      "name": "owner",
      "outputs": [
        {
          "internalType": "address",
          "name": "",
          "type": "address"
        }
      ],
      "stateMutability": "view",
      "type": "function",
      "constant": true
    },
    {
      "inputs": [
        {
          "internalType": "address",
          "name": "",
          "type": "address"
        }
      ],
      "name": "ownerToZombieCount",
      "outputs": [
        {
          "internalType": "uint256",
          "name": "",
          "type": "uint256"
        }
      ],
      "stateMutability": "view",
      "type": "function",
      "constant": true
    },
    {
      "inputs": [],
      "name": "renounceOwnership",
      "outputs": [],
      "stateMutability": "nonpayable",
      "type": "function"
    },
    {
      "inputs": [
        {
          "internalType": "address",
          "name": "newOwner",
          "type": "address"
        }
      ],
      "name": "transferOwnership",
      "outputs": [],
      "stateMutability": "nonpayable",
      "type": "function"
    },
    {
      "inputs": [
        {
          "internalType": "uint256",
          "name": "",
          "type": "uint256"
        }
      ],
      "name": "zombieToOwner",
      "outputs": [
        {
          "internalType": "address",
          "name": "",
          "type": "address"
        }
      ],
      "stateMutability": "view",
      "type": "function",
      "constant": true
    },
    {
      "inputs": [
        {
          "internalType": "uint256",
          "name": "",
          "type": "uint256"
        }
      ],
      "name": "zombies",
      "outputs": [
        {
          "internalType": "string",
          "name": "name",
          "type": "string"
        },
        {
          "internalType": "uint256",
          "name": "dna",
          "type": "uint256"
        }
      ],
      "stateMutability": "view",
      "type": "function",
      "constant": true
    },
    {
      "inputs": [
        {
          "internalType": "address",
          "name": "_address",
          "type": "address"
        }
      ],
      "name": "setKittyContractAddress",
      "outputs": [],
      "stateMutability": "nonpayable",
      "type": "function"
    },
    {
      "inputs": [
        {
          "internalType": "uint256",
          "name": "_zombieId",
          "type": "uint256"
        },
        {
          "internalType": "uint256",
          "name": "_targetDna",
          "type": "uint256"
        },
        {
          "internalType": "string",
          "name": "_species",
          "type": "string"
        }
      ],
      "name": "feedAndMultiply",
      "outputs": [],
      "stateMutability": "nonpayable",
      "type": "function"
    },
    {
      "inputs": [
        {
          "internalType": "uint256",
          "name": "_zombieId",
          "type": "uint256"
        },
        {
          "internalType": "uint256",
          "name": "_kittyId",
          "type": "uint256"
        }
      ],
      "name": "feedOnKitty",
      "outputs": [],
      "stateMutability": "nonpayable",
      "type": "function"
    }
  ],
  "bytecode": "0x60806040526010600155600154600a6200001a919062000147565b6002553480156200002a57600080fd5b50336000806101000a81548173ffffffffffffffffffffffffffffffffffffffff021916908373ffffffffffffffffffffffffffffffffffffffff16021790555060008054906101000a900473ffffffffffffffffffffffffffffffffffffffff1673ffffffffffffffffffffffffffffffffffffffff16600073ffffffffffffffffffffffffffffffffffffffff167f8be0079c531659141344cd1fd0a4f28419497f9722a3daafe3b4186f6b6457e060405160405180910390a3620002ca565b6000808291508390505b60018511156200013e578086048111156200011657620001156200028e565b5b6001851615620001265780820291505b80810290506200013685620002bd565b9450620000f6565b94509492505050565b6000620001548262000284565b9150620001618362000284565b9250620001907fffffffffffffffffffffffffffffffffffffffffffffffffffffffffffffffff848462000198565b905092915050565b600082620001aa57600190506200027d565b81620001ba57600090506200027d565b8160018114620001d35760028114620001de5762000214565b60019150506200027d565b60ff841115620001f357620001f26200028e565b5b8360020a9150848211156200020d576200020c6200028e565b5b506200027d565b5060208310610133831016604e8410600b84101617156200024e5782820a9050838111156200024857620002476200028e565b5b6200027d565b6200025d8484846001620000ec565b925090508184048111156200027757620002766200028e565b5b81810290505b9392505050565b6000819050919050565b7f4e487b7100000000000000000000000000000000000000000000000000000000600052601160045260246000fd5b60008160011c9050919050565b6113c980620002da6000396000f3fe608060405234801561001057600080fd5b50600436106100a95760003560e01c80636b7f926b116100715780636b7f926b14610163578063715018a6146101935780637bff0a011461019d5780638da5cb5b146101b95780638f32d59b146101d7578063f2fde38b146101f5576100a9565b806317a7f4cc146100ae5780632052465e146100ca578063528b7b8f146100fb5780635f4623f11461012b5780636b0bfc8014610147575b600080fd5b6100c860048036038101906100c39190610d71565b610211565b005b6100e460048036038101906100df9190610d48565b61033e565b6040516100f2929190610f30565b60405180910390f35b61011560048036038101906101109190610d48565b6103fa565b6040516101229190610efa565b60405180910390f35b61014560048036038101906101409190610c03565b61042d565b005b610161600480360381019061015c9190610dad565b610471565b005b61017d60048036038101906101789190610c03565b610617565b60405161018a9190610f60565b60405180910390f35b61019b61062f565b005b6101b760048036038101906101b29190610d07565b6106fe565b005b6101c1610765565b6040516101ce9190610efa565b60405180910390f35b6101df61078e565b6040516101ec9190610f15565b60405180910390f35b61020f600480360381019061020a9190610c03565b6107e5565b005b6000600660009054906101000a900473ffffffffffffffffffffffffffffffffffffffff1673ffffffffffffffffffffffffffffffffffffffff1663e98b7f4d836040518263ffffffff1660e01b815260040161026e9190610f60565b6101406040518083038186803b15801561028757600080fd5b505afa15801561029b573d6000803e3d6000fd5b505050506040513d601f19601f820116820180604052508101906102bf9190610c2c565b9091929394959697985090919293949596975090919293949596509091929394955090919293945090919293509091925090915090508091505061033983826040518060400160405280600581526020017f6b69747479000000000000000000000000000000000000000000000000000000815250610471565b505050565b6003818154811061034e57600080fd5b90600052602060002090600202016000915090508060000180546103719061117b565b80601f016020809104026020016040519081016040528092919081815260200182805461039d9061117b565b80156103ea5780601f106103bf576101008083540402835291602001916103ea565b820191906000526020600020905b8154815290600101906020018083116103cd57829003601f168201915b5050505050908060010154905082565b60046020528060005260406000206000915054906101000a900473ffffffffffffffffffffffffffffffffffffffff1681565b80600660006101000a81548173ffffffffffffffffffffffffffffffffffffffff021916908373ffffffffffffffffffffffffffffffffffffffff16021790555050565b3373ffffffffffffffffffffffffffffffffffffffff166004600085815260200190815260200160002060009054906101000a900473ffffffffffffffffffffffffffffffffffffffff1673ffffffffffffffffffffffffffffffffffffffff16146104dc57600080fd5b600060038481548110610518577f4e487b7100000000000000000000000000000000000000000000000000000000600052603260045260246000fd5b90600052602060002090600202019050600254836105369190611227565b92506000600284836001015461054c9190611036565b610556919061108c565b905060405160200161056790610ee5565b604051602081830303815290604052805190602001208360405160200161058e9190610ece565b6040516020818303038152906040528051906020012014156105d15760636064826105b99190611227565b826105c491906110bd565b6105ce9190611036565b90505b6106106040518060400160405280600481526020017f6e616d650000000000000000000000000000000000000000000000000000000081525082610802565b5050505050565b60056020528060005260406000206000915090505481565b61063761078e565b61064057600080fd5b600073ffffffffffffffffffffffffffffffffffffffff1660008054906101000a900473ffffffffffffffffffffffffffffffffffffffff1673ffffffffffffffffffffffffffffffffffffffff167f8be0079c531659141344cd1fd0a4f28419497f9722a3daafe3b4186f6b6457e060405160405180910390a360008060006101000a81548173ffffffffffffffffffffffffffffffffffffffff021916908373ffffffffffffffffffffffffffffffffffffffff160217905550565b6000600560003373ffffffffffffffffffffffffffffffffffffffff1673ffffffffffffffffffffffffffffffffffffffff168152602001908152602001600020541461074a57600080fd5b600061075582610968565b90506107618282610802565b5050565b60008060009054906101000a900473ffffffffffffffffffffffffffffffffffffffff16905090565b60008060009054906101000a900473ffffffffffffffffffffffffffffffffffffffff1673ffffffffffffffffffffffffffffffffffffffff163373ffffffffffffffffffffffffffffffffffffffff1614905090565b6107ed61078e565b6107f657600080fd5b6107ff816109ad565b50565b60036040518060400160405280848152602001838152509080600181540180825580915050600190039060005260206000209060020201600090919091909150600082015181600001908051906020019061085e929190610aa4565b506020820151816001015550506000600160038054905061087f91906110bd565b9050336004600083815260200190815260200160002060006101000a81548173ffffffffffffffffffffffffffffffffffffffff021916908373ffffffffffffffffffffffffffffffffffffffff160217905550600560003373ffffffffffffffffffffffffffffffffffffffff1673ffffffffffffffffffffffffffffffffffffffff1681526020019081526020016000206000815480929190610923906111de565b91905055507f88f026aacbbecc90c18411df4b1185fd8d9be2470f1962f192bf84a27d0704b781848460405161095b93929190610f7b565b60405180910390a1505050565b6000808260405160200161097c9190610ece565b6040516020818303038152906040528051906020012060001c9050600254816109a59190611227565b915050919050565b600073ffffffffffffffffffffffffffffffffffffffff168173ffffffffffffffffffffffffffffffffffffffff1614156109e757600080fd5b8073ffffffffffffffffffffffffffffffffffffffff1660008054906101000a900473ffffffffffffffffffffffffffffffffffffffff1673ffffffffffffffffffffffffffffffffffffffff167f8be0079c531659141344cd1fd0a4f28419497f9722a3daafe3b4186f6b6457e060405160405180910390a3806000806101000a81548173ffffffffffffffffffffffffffffffffffffffff021916908373ffffffffffffffffffffffffffffffffffffffff16021790555050565b828054610ab09061117b565b90600052602060002090601f016020900481019282610ad25760008555610b19565b82601f10610aeb57805160ff1916838001178555610b19565b82800160010185558215610b19579182015b82811115610b18578251825591602001919060010190610afd565b5b509050610b269190610b2a565b5090565b5b80821115610b43576000816000905550600101610b2b565b5090565b6000610b5a610b5584610fde565b610fb9565b905082815260208101848484011115610b7257600080fd5b610b7d848285611139565b509392505050565b600081359050610b948161134e565b92915050565b600081519050610ba981611365565b92915050565b600082601f830112610bc057600080fd5b8135610bd0848260208601610b47565b91505092915050565b600081359050610be88161137c565b92915050565b600081519050610bfd8161137c565b92915050565b600060208284031215610c1557600080fd5b6000610c2384828501610b85565b91505092915050565b6000806000806000806000806000806101408b8d031215610c4c57600080fd5b6000610c5a8d828e01610b9a565b9a50506020610c6b8d828e01610b9a565b9950506040610c7c8d828e01610bee565b9850506060610c8d8d828e01610bee565b9750506080610c9e8d828e01610bee565b96505060a0610caf8d828e01610bee565b95505060c0610cc08d828e01610bee565b94505060e0610cd18d828e01610bee565b935050610100610ce38d828e01610bee565b925050610120610cf58d828e01610bee565b9150509295989b9194979a5092959850565b600060208284031215610d1957600080fd5b600082013567ffffffffffffffff811115610d3357600080fd5b610d3f84828501610baf565b91505092915050565b600060208284031215610d5a57600080fd5b6000610d6884828501610bd9565b91505092915050565b60008060408385031215610d8457600080fd5b6000610d9285828601610bd9565b9250506020610da385828601610bd9565b9150509250929050565b600080600060608486031215610dc257600080fd5b6000610dd086828701610bd9565b9350506020610de186828701610bd9565b925050604084013567ffffffffffffffff811115610dfe57600080fd5b610e0a86828701610baf565b9150509250925092565b610e1d816110f1565b82525050565b610e2c81611103565b82525050565b6000610e3d8261100f565b610e47818561101a565b9350610e57818560208601611148565b610e6081611314565b840191505092915050565b6000610e768261100f565b610e80818561102b565b9350610e90818560208601611148565b80840191505092915050565b6000610ea960058361102b565b9150610eb482611325565b600582019050919050565b610ec88161112f565b82525050565b6000610eda8284610e6b565b915081905092915050565b6000610ef082610e9c565b9150819050919050565b6000602082019050610f0f6000830184610e14565b92915050565b6000602082019050610f2a6000830184610e23565b92915050565b60006040820190508181036000830152610f4a8185610e32565b9050610f596020830184610ebf565b9392505050565b6000602082019050610f756000830184610ebf565b92915050565b6000606082019050610f906000830186610ebf565b8181036020830152610fa28185610e32565b9050610fb16040830184610ebf565b949350505050565b6000610fc3610fd4565b9050610fcf82826111ad565b919050565b6000604051905090565b600067ffffffffffffffff821115610ff957610ff86112e5565b5b61100282611314565b9050602081019050919050565b600081519050919050565b600082825260208201905092915050565b600081905092915050565b60006110418261112f565b915061104c8361112f565b9250827fffffffffffffffffffffffffffffffffffffffffffffffffffffffffffffffff0382111561108157611080611258565b5b828201905092915050565b60006110978261112f565b91506110a28361112f565b9250826110b2576110b1611287565b5b828204905092915050565b60006110c88261112f565b91506110d38361112f565b9250828210156110e6576110e5611258565b5b828203905092915050565b60006110fc8261110f565b9050919050565b60008115159050919050565b600073ffffffffffffffffffffffffffffffffffffffff82169050919050565b6000819050919050565b82818337600083830152505050565b60005b8381101561116657808201518184015260208101905061114b565b83811115611175576000848401525b50505050565b6000600282049050600182168061119357607f821691505b602082108114156111a7576111a66112b6565b5b50919050565b6111b682611314565b810181811067ffffffffffffffff821117156111d5576111d46112e5565b5b80604052505050565b60006111e98261112f565b91507fffffffffffffffffffffffffffffffffffffffffffffffffffffffffffffffff82141561121c5761121b611258565b5b600182019050919050565b60006112328261112f565b915061123d8361112f565b92508261124d5761124c611287565b5b828206905092915050565b7f4e487b7100000000000000000000000000000000000000000000000000000000600052601160045260246000fd5b7f4e487b7100000000000000000000000000000000000000000000000000000000600052601260045260246000fd5b7f4e487b7100000000000000000000000000000000000000000000000000000000600052602260045260246000fd5b7f4e487b7100000000000000000000000000000000000000000000000000000000600052604160045260246000fd5b6000601f19601f8301169050919050565b7f6b69747479000000000000000000000000000000000000000000000000000000600082015250565b611357816110f1565b811461136257600080fd5b50565b61136e81611103565b811461137957600080fd5b50565b6113858161112f565b811461139057600080fd5b5056fea264697066735822122097c4a6e2942c79fe51ea49d123a434a549ddd2e62918b7230ec359aefe12995964736f6c63430008040033",
  "immutableReferences": {},
  "source": "// SPDX-License-Identifier: MIT\npragma solidity >=0.5.0 <0.9.0;\nimport './ZombieFactory.sol';\n\n abstract contract KittyInterface {\n  function getKitty(uint256 _id) virtual external view returns (\n    bool isGestating,\n    bool isReady,\n    uint256 cooldownIndex,\n    uint256 nextActionAt,\n    uint256 siringWithId,\n    uint256 birthTime,\n    uint256 matronId,\n    uint256 sireId,\n    uint256 generation,\n    uint256 genes\n  );\n}\n\ncontract ZombieFeeding is ZombieFactory{\n\n  KittyInterface kittyContract;\n\n  function setKittyContractAddress(address _address) external {\n   kittyContract = KittyInterface(_address);\n  }\n\n  function feedAndMultiply(uint _zombieId, uint _targetDna, string memory _species) public{\n    require(zombieToOwner[_zombieId] == msg.sender);\n    \n    Zombie storage myZombie = zombies[_zombieId];\n    _targetDna = _targetDna % dnaModulus;\n    uint newDna = (myZombie.dna + _targetDna) / 2;\n\n    if(keccak256(abi.encodePacked(_species)) == keccak256(abi.encodePacked(\"kitty\"))){\n       newDna = newDna - newDna % 100 + 99;\n    }\n\n     _createZombie(\"name\", newDna);\n  }\n\n  function feedOnKitty(uint _zombieId, uint _kittyId) public {\n    uint kittyDna;\n     (,,,,,,,,,kittyDna) = kittyContract.getKitty(_kittyId);\n    feedAndMultiply(_zombieId, kittyDna, \"kitty\");\n  }\n\n}",
  "sourcePath": "/Users/pedrolucinda/Desktop/repositories/solidty/cryptozombies/contracts/ZombieFeeding.sol",
  "compiler": {
    "name": "solc",
    "version": "0.8.4+commit.c7e474f2.Emscripten.clang"
  },
  "schemaVersion": "3.4.6",
  "updatedAt": "2022-03-21T18:03:44.081Z",
  "networkType": "ethereum",
  "devdoc": {
    "kind": "dev",
    "methods": {
      "isOwner()": {
        "returns": {
          "_0": "true if `msg.sender` is the owner of the contract."
        }
      },
      "owner()": {
        "returns": {
          "_0": "the address of the owner."
        }
      },
      "renounceOwnership()": {
        "details": "Allows the current owner to relinquish control of the contract."
      },
      "transferOwnership(address)": {
        "details": "Allows the current owner to transfer control of the contract to a newOwner.",
        "params": {
          "newOwner": "The address to transfer ownership to."
        }
      }
    },
    "version": 1
  },
  "userdoc": {
    "kind": "user",
    "methods": {
      "renounceOwnership()": {
        "notice": "Renouncing to ownership will leave the contract without an owner. It will not be possible to call the functions with the `onlyOwner` modifier anymore."
      }
    },
    "version": 1
  }
}