{
  "contractName": "ZombieFeeding",
  "abi": [
    {
      "anonymous": false,
      "inputs": [
        {
          "indexed": false,
          "internalType": "uint256",
          "name": "zombieId",
          "type": "uint256"
        },
        {
          "indexed": false,
          "internalType": "string",
          "name": "name",
          "type": "string"
        },
        {
          "indexed": false,
          "internalType": "uint256",
          "name": "dna",
          "type": "uint256"
        }
      ],
      "name": "NewZombie",
      "type": "event"
    },
    {
      "anonymous": false,
      "inputs": [
        {
          "indexed": true,
          "internalType": "address",
          "name": "previousOwner",
          "type": "address"
        },
        {
          "indexed": true,
          "internalType": "address",
          "name": "newOwner",
          "type": "address"
        }
      ],
      "name": "OwnershipTransferred",
      "type": "event"
    },
    {
      "inputs": [
        {
          "internalType": "string",
          "name": "_name",
          "type": "string"
        }
      ],
      "name": "createRandomZombie",
      "outputs": [],
      "stateMutability": "nonpayable",
      "type": "function"
    },
    {
      "inputs": [],
      "name": "owner",
      "outputs": [
        {
          "internalType": "address",
          "name": "",
          "type": "address"
        }
      ],
      "stateMutability": "view",
      "type": "function",
      "constant": true
    },
    {
      "inputs": [],
      "name": "renounceOwnership",
      "outputs": [],
      "stateMutability": "nonpayable",
      "type": "function"
    },
    {
      "inputs": [
        {
          "internalType": "address",
          "name": "newOwner",
          "type": "address"
        }
      ],
      "name": "transferOwnership",
      "outputs": [],
      "stateMutability": "nonpayable",
      "type": "function"
    },
    {
      "inputs": [
        {
          "internalType": "uint256",
          "name": "",
          "type": "uint256"
        }
      ],
      "name": "zombieToOwner",
      "outputs": [
        {
          "internalType": "address",
          "name": "",
          "type": "address"
        }
      ],
      "stateMutability": "view",
      "type": "function",
      "constant": true
    },
    {
      "inputs": [
        {
          "internalType": "uint256",
          "name": "",
          "type": "uint256"
        }
      ],
      "name": "zombies",
      "outputs": [
        {
          "internalType": "string",
          "name": "name",
          "type": "string"
        },
        {
          "internalType": "uint256",
          "name": "dna",
          "type": "uint256"
        },
        {
          "internalType": "uint32",
          "name": "level",
          "type": "uint32"
        },
        {
          "internalType": "uint32",
          "name": "readyTime",
          "type": "uint32"
        }
      ],
      "stateMutability": "view",
      "type": "function",
      "constant": true
    },
    {
      "inputs": [
        {
          "internalType": "address",
          "name": "_address",
          "type": "address"
        }
      ],
      "name": "setKittyContractAddress",
      "outputs": [],
      "stateMutability": "nonpayable",
      "type": "function"
    },
    {
      "inputs": [
        {
          "internalType": "uint256",
          "name": "_zombieId",
          "type": "uint256"
        },
        {
          "internalType": "uint256",
          "name": "_kittyId",
          "type": "uint256"
        }
      ],
      "name": "feedOnKitty",
      "outputs": [],
      "stateMutability": "nonpayable",
      "type": "function"
    }
  ],
  "bytecode": "0x60806040526010600155600154600a6200001a91906200017f565b600255620151806003553480156200003157600080fd5b5062000052620000466200005860201b60201c565b6200006060201b60201c565b62000302565b600033905090565b60008060009054906101000a900473ffffffffffffffffffffffffffffffffffffffff169050816000806101000a81548173ffffffffffffffffffffffffffffffffffffffff021916908373ffffffffffffffffffffffffffffffffffffffff1602179055508173ffffffffffffffffffffffffffffffffffffffff168173ffffffffffffffffffffffffffffffffffffffff167f8be0079c531659141344cd1fd0a4f28419497f9722a3daafe3b4186f6b6457e060405160405180910390a35050565b6000808291508390505b600185111562000176578086048111156200014e576200014d620002c6565b5b60018516156200015e5780820291505b80810290506200016e85620002f5565b94506200012e565b94509492505050565b60006200018c82620002bc565b91506200019983620002bc565b9250620001c87fffffffffffffffffffffffffffffffffffffffffffffffffffffffffffffffff8484620001d0565b905092915050565b600082620001e25760019050620002b5565b81620001f25760009050620002b5565b81600181146200020b576002811462000216576200024c565b6001915050620002b5565b60ff8411156200022b576200022a620002c6565b5b8360020a915084821115620002455762000244620002c6565b5b50620002b5565b5060208310610133831016604e8410600b8410161715620002865782820a90508381111562000280576200027f620002c6565b5b620002b5565b62000295848484600162000124565b92509050818404811115620002af57620002ae620002c6565b5b81810290505b9392505050565b6000819050919050565b7f4e487b7100000000000000000000000000000000000000000000000000000000600052601160045260246000fd5b60008160011c9050919050565b61158d80620003126000396000f3fe608060405234801561001057600080fd5b50600436106100885760003560e01c8063715018a61161005b578063715018a6146101285780637bff0a01146101325780638da5cb5b1461014e578063f2fde38b1461016c57610088565b806317a7f4cc1461008d5780632052465e146100a9578063528b7b8f146100dc5780635f4623f11461010c575b600080fd5b6100a760048036038101906100a29190610e8d565b610188565b005b6100c360048036038101906100be9190610e64565b6102b5565b6040516100d39493929190611010565b60405180910390f35b6100f660048036038101906100f19190610e64565b61039d565b6040516101039190610ff5565b60405180910390f35b61012660048036038101906101219190610d1f565b6103d0565b005b610130610490565b005b61014c60048036038101906101479190610e23565b610518565b005b610156610599565b6040516101639190610ff5565b60405180910390f35b61018660048036038101906101819190610d1f565b6105c2565b005b6000600760009054906101000a900473ffffffffffffffffffffffffffffffffffffffff1673ffffffffffffffffffffffffffffffffffffffff1663e98b7f4d836040518263ffffffff1660e01b81526004016101e5919061109c565b6101406040518083038186803b1580156101fe57600080fd5b505afa158015610212573d6000803e3d6000fd5b505050506040513d601f19601f820116820180604052508101906102369190610d48565b909192939495969798509091929394959697509091929394959650909192939495509091929394509091929350909192509091509050809150506102b083826040518060400160405280600581526020017f6b697474790000000000000000000000000000000000000000000000000000008152506106ba565b505050565b600481815481106102c557600080fd5b90600052602060002090600302016000915090508060000180546102e8906112c7565b80601f0160208091040260200160405190810160405280929190818152602001828054610314906112c7565b80156103615780601f1061033657610100808354040283529160200191610361565b820191906000526020600020905b81548152906001019060200180831161034457829003601f168201915b5050505050908060010154908060020160009054906101000a900463ffffffff16908060020160049054906101000a900463ffffffff16905084565b60056020528060005260406000206000915054906101000a900473ffffffffffffffffffffffffffffffffffffffff1681565b6103d861087b565b73ffffffffffffffffffffffffffffffffffffffff166103f6610599565b73ffffffffffffffffffffffffffffffffffffffff161461044c576040517f08c379a00000000000000000000000000000000000000000000000000000000081526004016104439061107c565b60405180910390fd5b80600760006101000a81548173ffffffffffffffffffffffffffffffffffffffff021916908373ffffffffffffffffffffffffffffffffffffffff16021790555050565b61049861087b565b73ffffffffffffffffffffffffffffffffffffffff166104b6610599565b73ffffffffffffffffffffffffffffffffffffffff161461050c576040517f08c379a00000000000000000000000000000000000000000000000000000000081526004016105039061107c565b60405180910390fd5b6105166000610883565b565b6000600660003373ffffffffffffffffffffffffffffffffffffffff1673ffffffffffffffffffffffffffffffffffffffff168152602001908152602001600020541461056457600080fd5b600061056f82610947565b905060648161057e9190611373565b8161058991906111f9565b9050610595828261098c565b5050565b60008060009054906101000a900473ffffffffffffffffffffffffffffffffffffffff16905090565b6105ca61087b565b73ffffffffffffffffffffffffffffffffffffffff166105e8610599565b73ffffffffffffffffffffffffffffffffffffffff161461063e576040517f08c379a00000000000000000000000000000000000000000000000000000000081526004016106359061107c565b60405180910390fd5b600073ffffffffffffffffffffffffffffffffffffffff168173ffffffffffffffffffffffffffffffffffffffff1614156106ae576040517f08c379a00000000000000000000000000000000000000000000000000000000081526004016106a59061105c565b60405180910390fd5b6106b781610883565b50565b3373ffffffffffffffffffffffffffffffffffffffff166005600085815260200190815260200160002060009054906101000a900473ffffffffffffffffffffffffffffffffffffffff1673ffffffffffffffffffffffffffffffffffffffff161461072557600080fd5b600060048481548110610761577f4e487b7100000000000000000000000000000000000000000000000000000000600052603260045260246000fd5b9060005260206000209060030201905061077a81610b66565b61078357600080fd5b600254836107919190611373565b9250600060028483600101546107a79190611172565b6107b191906111c8565b90506040516020016107c290610fe0565b60405160208183030381529060405280519060200120836040516020016107e99190610fc9565b60405160208183030381529060405280519060200120141561082c5760636064826108149190611373565b8261081f91906111f9565b6108299190611172565b90505b61086b6040518060400160405280600481526020017f6e616d65000000000000000000000000000000000000000000000000000000008152508261098c565b61087482610b8d565b5050505050565b600033905090565b60008060009054906101000a900473ffffffffffffffffffffffffffffffffffffffff169050816000806101000a81548173ffffffffffffffffffffffffffffffffffffffff021916908373ffffffffffffffffffffffffffffffffffffffff1602179055508173ffffffffffffffffffffffffffffffffffffffff168173ffffffffffffffffffffffffffffffffffffffff167f8be0079c531659141344cd1fd0a4f28419497f9722a3daafe3b4186f6b6457e060405160405180910390a35050565b6000808260405160200161095b9190610fc9565b6040516020818303038152906040528051906020012060001c9050600254816109849190611373565b915050919050565b60046040518060800160405280848152602001838152602001600163ffffffff168152602001600354426109c09190611172565b63ffffffff1681525090806001815401808255809150506001900390600052602060002090600302016000909190919091506000820151816000019080519060200190610a0e929190610bc0565b506020820151816001015560408201518160020160006101000a81548163ffffffff021916908363ffffffff16021790555060608201518160020160046101000a81548163ffffffff021916908363ffffffff160217905550505060006001600480549050610a7d91906111f9565b9050336005600083815260200190815260200160002060006101000a81548173ffffffffffffffffffffffffffffffffffffffff021916908373ffffffffffffffffffffffffffffffffffffffff160217905550600660003373ffffffffffffffffffffffffffffffffffffffff1673ffffffffffffffffffffffffffffffffffffffff1681526020019081526020016000206000815480929190610b219061132a565b91905055507f88f026aacbbecc90c18411df4b1185fd8d9be2470f1962f192bf84a27d0704b7818484604051610b59939291906110b7565b60405180910390a1505050565b6000428260020160049054906101000a900463ffffffff1663ffffffff1611159050919050565b60035442610b9b9190611172565b8160020160046101000a81548163ffffffff021916908363ffffffff16021790555050565b828054610bcc906112c7565b90600052602060002090601f016020900481019282610bee5760008555610c35565b82601f10610c0757805160ff1916838001178555610c35565b82800160010185558215610c35579182015b82811115610c34578251825591602001919060010190610c19565b5b509050610c429190610c46565b5090565b5b80821115610c5f576000816000905550600101610c47565b5090565b6000610c76610c718461111a565b6110f5565b905082815260208101848484011115610c8e57600080fd5b610c99848285611285565b509392505050565b600081359050610cb081611512565b92915050565b600081519050610cc581611529565b92915050565b600082601f830112610cdc57600080fd5b8135610cec848260208601610c63565b91505092915050565b600081359050610d0481611540565b92915050565b600081519050610d1981611540565b92915050565b600060208284031215610d3157600080fd5b6000610d3f84828501610ca1565b91505092915050565b6000806000806000806000806000806101408b8d031215610d6857600080fd5b6000610d768d828e01610cb6565b9a50506020610d878d828e01610cb6565b9950506040610d988d828e01610d0a565b9850506060610da98d828e01610d0a565b9750506080610dba8d828e01610d0a565b96505060a0610dcb8d828e01610d0a565b95505060c0610ddc8d828e01610d0a565b94505060e0610ded8d828e01610d0a565b935050610100610dff8d828e01610d0a565b925050610120610e118d828e01610d0a565b9150509295989b9194979a5092959850565b600060208284031215610e3557600080fd5b600082013567ffffffffffffffff811115610e4f57600080fd5b610e5b84828501610ccb565b91505092915050565b600060208284031215610e7657600080fd5b6000610e8484828501610cf5565b91505092915050565b60008060408385031215610ea057600080fd5b6000610eae85828601610cf5565b9250506020610ebf85828601610cf5565b9150509250929050565b610ed28161122d565b82525050565b6000610ee38261114b565b610eed8185611156565b9350610efd818560208601611294565b610f0681611460565b840191505092915050565b6000610f1c8261114b565b610f268185611167565b9350610f36818560208601611294565b80840191505092915050565b6000610f4f602683611156565b9150610f5a82611471565b604082019050919050565b6000610f72600583611167565b9150610f7d826114c0565b600582019050919050565b6000610f95602083611156565b9150610fa0826114e9565b602082019050919050565b610fb48161126b565b82525050565b610fc381611275565b82525050565b6000610fd58284610f11565b915081905092915050565b6000610feb82610f65565b9150819050919050565b600060208201905061100a6000830184610ec9565b92915050565b6000608082019050818103600083015261102a8187610ed8565b90506110396020830186610fab565b6110466040830185610fba565b6110536060830184610fba565b95945050505050565b6000602082019050818103600083015261107581610f42565b9050919050565b6000602082019050818103600083015261109581610f88565b9050919050565b60006020820190506110b16000830184610fab565b92915050565b60006060820190506110cc6000830186610fab565b81810360208301526110de8185610ed8565b90506110ed6040830184610fab565b949350505050565b60006110ff611110565b905061110b82826112f9565b919050565b6000604051905090565b600067ffffffffffffffff82111561113557611134611431565b5b61113e82611460565b9050602081019050919050565b600081519050919050565b600082825260208201905092915050565b600081905092915050565b600061117d8261126b565b91506111888361126b565b9250827fffffffffffffffffffffffffffffffffffffffffffffffffffffffffffffffff038211156111bd576111bc6113a4565b5b828201905092915050565b60006111d38261126b565b91506111de8361126b565b9250826111ee576111ed6113d3565b5b828204905092915050565b60006112048261126b565b915061120f8361126b565b925082821015611222576112216113a4565b5b828203905092915050565b60006112388261124b565b9050919050565b60008115159050919050565b600073ffffffffffffffffffffffffffffffffffffffff82169050919050565b6000819050919050565b600063ffffffff82169050919050565b82818337600083830152505050565b60005b838110156112b2578082015181840152602081019050611297565b838111156112c1576000848401525b50505050565b600060028204905060018216806112df57607f821691505b602082108114156112f3576112f2611402565b5b50919050565b61130282611460565b810181811067ffffffffffffffff8211171561132157611320611431565b5b80604052505050565b60006113358261126b565b91507fffffffffffffffffffffffffffffffffffffffffffffffffffffffffffffffff821415611368576113676113a4565b5b600182019050919050565b600061137e8261126b565b91506113898361126b565b925082611399576113986113d3565b5b828206905092915050565b7f4e487b7100000000000000000000000000000000000000000000000000000000600052601160045260246000fd5b7f4e487b7100000000000000000000000000000000000000000000000000000000600052601260045260246000fd5b7f4e487b7100000000000000000000000000000000000000000000000000000000600052602260045260246000fd5b7f4e487b7100000000000000000000000000000000000000000000000000000000600052604160045260246000fd5b6000601f19601f8301169050919050565b7f4f776e61626c653a206e6577206f776e657220697320746865207a65726f206160008201527f6464726573730000000000000000000000000000000000000000000000000000602082015250565b7f6b69747479000000000000000000000000000000000000000000000000000000600082015250565b7f4f776e61626c653a2063616c6c6572206973206e6f7420746865206f776e6572600082015250565b61151b8161122d565b811461152657600080fd5b50565b6115328161123f565b811461153d57600080fd5b50565b6115498161126b565b811461155457600080fd5b5056fea264697066735822122014291372a3e22ffed1e5715692d35b32d0bbe302eb87b9e8129be85afb979c1864736f6c63430008040033",
  "immutableReferences": {},
  "source": "// SPDX-License-Identifier: MIT\r\npragma solidity >=0.5.0 <0.9.0;\r\n\r\nimport './ZombieFactory.sol';\r\n\r\nabstract contract KittyInterface {\r\n  function getKitty(uint256 _id) virtual external view returns (\r\n    bool isGestating,\r\n    bool isReady,\r\n    uint256 cooldownIndex,\r\n    uint256 nextActionAt,\r\n    uint256 siringWithId,\r\n    uint256 birthTime,\r\n    uint256 matronId,\r\n    uint256 sireId,\r\n    uint256 generation,\r\n    uint256 genes\r\n  );\r\n}\r\n\r\ncontract ZombieFeeding is ZombieFactory{\r\n\r\n  KittyInterface kittyContract;\r\n\r\n  function setKittyContractAddress(address _address) external onlyOwner{\r\n   kittyContract = KittyInterface(_address);\r\n  }\r\n\r\n    function _triggerCooldown(Zombie storage _zombie) internal {\r\n    _zombie.readyTime = uint32(block.timestamp + cooldownTime);\r\n  }\r\n\r\n  function _isReady(Zombie storage _zombie) internal view returns (bool) {\r\n      return (_zombie.readyTime <= block.timestamp);\r\n  }\r\n\r\n\r\n  function feedAndMultiply(uint _zombieId, uint _targetDna, string memory _species) internal {\r\n    require(zombieToOwner[_zombieId] == msg.sender);\r\n    \r\n    Zombie storage myZombie = zombies[_zombieId];\r\n    // check cooldown\r\n    require(_isReady(myZombie));\r\n  \r\n   _targetDna = _targetDna % dnaModulus;\r\n    uint newDna = (myZombie.dna + _targetDna) / 2;\r\n\r\n    if(keccak256(abi.encodePacked(_species)) == keccak256(abi.encodePacked(\"kitty\"))){\r\n       newDna = newDna - newDna % 100 + 99;\r\n    }\r\n\r\n    _createZombie(\"name\", newDna);\r\n\r\n    _triggerCooldown(myZombie);\r\n  }\r\n\r\n  function feedOnKitty(uint _zombieId, uint _kittyId) public {\r\n    uint kittyDna;\r\n     (,,,,,,,,,kittyDna) = kittyContract.getKitty(_kittyId);\r\n    feedAndMultiply(_zombieId, kittyDna, \"kitty\");\r\n  }\r\n\r\n}",
  "sourcePath": "/home/pedrolucinda/repos/solidity/zombies_eth_web3/contracts/ZombieFeeding.sol",
  "compiler": {
    "name": "solc",
    "version": "0.8.4+commit.c7e474f2.Emscripten.clang"
  },
  "schemaVersion": "3.4.4",
  "updatedAt": "2022-04-26T22:37:24.413Z",
  "networkType": "ethereum",
  "devdoc": {
    "kind": "dev",
    "methods": {
      "owner()": {
        "details": "Returns the address of the current owner."
      },
      "renounceOwnership()": {
        "details": "Leaves the contract without owner. It will not be possible to call `onlyOwner` functions anymore. Can only be called by the current owner. NOTE: Renouncing ownership will leave the contract without an owner, thereby removing any functionality that is only available to the owner."
      },
      "transferOwnership(address)": {
        "details": "Transfers ownership of the contract to a new account (`newOwner`). Can only be called by the current owner."
      }
    },
    "version": 1
  },
  "userdoc": {
    "kind": "user",
    "methods": {},
    "version": 1
  }
}