{
  "contractName": "ZombieFactory",
  "abi": [
    {
      "anonymous": false,
      "inputs": [
        {
          "indexed": false,
          "internalType": "uint256",
          "name": "zombieId",
          "type": "uint256"
        },
        {
          "indexed": false,
          "internalType": "string",
          "name": "name",
          "type": "string"
        },
        {
          "indexed": false,
          "internalType": "uint256",
          "name": "dna",
          "type": "uint256"
        }
      ],
      "name": "NewZombie",
      "type": "event"
    },
    {
      "anonymous": false,
      "inputs": [
        {
          "indexed": true,
          "internalType": "address",
          "name": "previousOwner",
          "type": "address"
        },
        {
          "indexed": true,
          "internalType": "address",
          "name": "newOwner",
          "type": "address"
        }
      ],
      "name": "OwnershipTransferred",
      "type": "event"
    },
    {
      "inputs": [],
      "name": "isOwner",
      "outputs": [
        {
          "internalType": "bool",
          "name": "",
          "type": "bool"
        }
      ],
      "stateMutability": "view",
      "type": "function",
      "constant": true
    },
    {
      "inputs": [],
      "name": "owner",
      "outputs": [
        {
          "internalType": "address",
          "name": "",
          "type": "address"
        }
      ],
      "stateMutability": "view",
      "type": "function",
      "constant": true
    },
    {
      "inputs": [
        {
          "internalType": "address",
          "name": "",
          "type": "address"
        }
      ],
      "name": "ownerToZombieCount",
      "outputs": [
        {
          "internalType": "uint256",
          "name": "",
          "type": "uint256"
        }
      ],
      "stateMutability": "view",
      "type": "function",
      "constant": true
    },
    {
      "inputs": [],
      "name": "renounceOwnership",
      "outputs": [],
      "stateMutability": "nonpayable",
      "type": "function"
    },
    {
      "inputs": [
        {
          "internalType": "address",
          "name": "newOwner",
          "type": "address"
        }
      ],
      "name": "transferOwnership",
      "outputs": [],
      "stateMutability": "nonpayable",
      "type": "function"
    },
    {
      "inputs": [
        {
          "internalType": "uint256",
          "name": "",
          "type": "uint256"
        }
      ],
      "name": "zombieToOwner",
      "outputs": [
        {
          "internalType": "address",
          "name": "",
          "type": "address"
        }
      ],
      "stateMutability": "view",
      "type": "function",
      "constant": true
    },
    {
      "inputs": [
        {
          "internalType": "uint256",
          "name": "",
          "type": "uint256"
        }
      ],
      "name": "zombies",
      "outputs": [
        {
          "internalType": "string",
          "name": "name",
          "type": "string"
        },
        {
          "internalType": "uint256",
          "name": "dna",
          "type": "uint256"
        }
      ],
      "stateMutability": "view",
      "type": "function",
      "constant": true
    },
    {
      "inputs": [
        {
          "internalType": "string",
          "name": "_name",
          "type": "string"
        }
      ],
      "name": "createRandomZombie",
      "outputs": [],
      "stateMutability": "nonpayable",
      "type": "function"
    }
  ],
  "bytecode": "0x60806040526010600155600154600a6200001a919062000147565b6002553480156200002a57600080fd5b50336000806101000a81548173ffffffffffffffffffffffffffffffffffffffff021916908373ffffffffffffffffffffffffffffffffffffffff16021790555060008054906101000a900473ffffffffffffffffffffffffffffffffffffffff1673ffffffffffffffffffffffffffffffffffffffff16600073ffffffffffffffffffffffffffffffffffffffff167f8be0079c531659141344cd1fd0a4f28419497f9722a3daafe3b4186f6b6457e060405160405180910390a3620002ca565b6000808291508390505b60018511156200013e578086048111156200011657620001156200028e565b5b6001851615620001265780820291505b80810290506200013685620002bd565b9450620000f6565b94509492505050565b6000620001548262000284565b9150620001618362000284565b9250620001907fffffffffffffffffffffffffffffffffffffffffffffffffffffffffffffffff848462000198565b905092915050565b600082620001aa57600190506200027d565b81620001ba57600090506200027d565b8160018114620001d35760028114620001de5762000214565b60019150506200027d565b60ff841115620001f357620001f26200028e565b5b8360020a9150848211156200020d576200020c6200028e565b5b506200027d565b5060208310610133831016604e8410600b84101617156200024e5782820a9050838111156200024857620002476200028e565b5b6200027d565b6200025d8484846001620000ec565b925090508184048111156200027757620002766200028e565b5b81810290505b9392505050565b6000819050919050565b7f4e487b7100000000000000000000000000000000000000000000000000000000600052601160045260246000fd5b60008160011c9050919050565b610d9680620002da6000396000f3fe608060405234801561001057600080fd5b50600436106100885760003560e01c80637bff0a011161005b5780637bff0a01146101285780638da5cb5b146101445780638f32d59b14610162578063f2fde38b1461018057610088565b80632052465e1461008d578063528b7b8f146100be5780636b7f926b146100ee578063715018a61461011e575b600080fd5b6100a760048036038101906100a291906108b7565b61019c565b6040516100b59291906109c4565b60405180910390f35b6100d860048036038101906100d391906108b7565b610258565b6040516100e5919061098e565b60405180910390f35b6101086004803603810190610103919061084d565b61028b565b60405161011591906109f4565b60405180910390f35b6101266102a3565b005b610142600480360381019061013d9190610876565b610372565b005b61014c6103d9565b604051610159919061098e565b60405180910390f35b61016a610402565b60405161017791906109a9565b60405180910390f35b61019a6004803603810190610195919061084d565b610459565b005b600381815481106101ac57600080fd5b90600052602060002090600202016000915090508060000180546101cf90610b88565b80601f01602080910402602001604051908101604052809291908181526020018280546101fb90610b88565b80156102485780601f1061021d57610100808354040283529160200191610248565b820191906000526020600020905b81548152906001019060200180831161022b57829003601f168201915b5050505050908060010154905082565b60046020528060005260406000206000915054906101000a900473ffffffffffffffffffffffffffffffffffffffff1681565b60056020528060005260406000206000915090505481565b6102ab610402565b6102b457600080fd5b600073ffffffffffffffffffffffffffffffffffffffff1660008054906101000a900473ffffffffffffffffffffffffffffffffffffffff1673ffffffffffffffffffffffffffffffffffffffff167f8be0079c531659141344cd1fd0a4f28419497f9722a3daafe3b4186f6b6457e060405160405180910390a360008060006101000a81548173ffffffffffffffffffffffffffffffffffffffff021916908373ffffffffffffffffffffffffffffffffffffffff160217905550565b6000600560003373ffffffffffffffffffffffffffffffffffffffff1673ffffffffffffffffffffffffffffffffffffffff16815260200190815260200160002054146103be57600080fd5b60006103c982610476565b90506103d582826104bb565b5050565b60008060009054906101000a900473ffffffffffffffffffffffffffffffffffffffff16905090565b60008060009054906101000a900473ffffffffffffffffffffffffffffffffffffffff1673ffffffffffffffffffffffffffffffffffffffff163373ffffffffffffffffffffffffffffffffffffffff1614905090565b610461610402565b61046a57600080fd5b61047381610621565b50565b6000808260405160200161048a9190610977565b6040516020818303038152906040528051906020012060001c9050600254816104b39190610c34565b915050919050565b600360405180604001604052808481526020018381525090806001815401808255809150506001900390600052602060002090600202016000909190919091506000820151816000019080519060200190610517929190610718565b50602082015181600101555050600060016003805490506105389190610aca565b9050336004600083815260200190815260200160002060006101000a81548173ffffffffffffffffffffffffffffffffffffffff021916908373ffffffffffffffffffffffffffffffffffffffff160217905550600560003373ffffffffffffffffffffffffffffffffffffffff1673ffffffffffffffffffffffffffffffffffffffff16815260200190815260200160002060008154809291906105dc90610beb565b91905055507f88f026aacbbecc90c18411df4b1185fd8d9be2470f1962f192bf84a27d0704b781848460405161061493929190610a0f565b60405180910390a1505050565b600073ffffffffffffffffffffffffffffffffffffffff168173ffffffffffffffffffffffffffffffffffffffff16141561065b57600080fd5b8073ffffffffffffffffffffffffffffffffffffffff1660008054906101000a900473ffffffffffffffffffffffffffffffffffffffff1673ffffffffffffffffffffffffffffffffffffffff167f8be0079c531659141344cd1fd0a4f28419497f9722a3daafe3b4186f6b6457e060405160405180910390a3806000806101000a81548173ffffffffffffffffffffffffffffffffffffffff021916908373ffffffffffffffffffffffffffffffffffffffff16021790555050565b82805461072490610b88565b90600052602060002090601f016020900481019282610746576000855561078d565b82601f1061075f57805160ff191683800117855561078d565b8280016001018555821561078d579182015b8281111561078c578251825591602001919060010190610771565b5b50905061079a919061079e565b5090565b5b808211156107b757600081600090555060010161079f565b5090565b60006107ce6107c984610a72565b610a4d565b9050828152602081018484840111156107e657600080fd5b6107f1848285610b46565b509392505050565b60008135905061080881610d32565b92915050565b600082601f83011261081f57600080fd5b813561082f8482602086016107bb565b91505092915050565b60008135905061084781610d49565b92915050565b60006020828403121561085f57600080fd5b600061086d848285016107f9565b91505092915050565b60006020828403121561088857600080fd5b600082013567ffffffffffffffff8111156108a257600080fd5b6108ae8482850161080e565b91505092915050565b6000602082840312156108c957600080fd5b60006108d784828501610838565b91505092915050565b6108e981610afe565b82525050565b6108f881610b10565b82525050565b600061090982610aa3565b6109138185610aae565b9350610923818560208601610b55565b61092c81610d21565b840191505092915050565b600061094282610aa3565b61094c8185610abf565b935061095c818560208601610b55565b80840191505092915050565b61097181610b3c565b82525050565b60006109838284610937565b915081905092915050565b60006020820190506109a360008301846108e0565b92915050565b60006020820190506109be60008301846108ef565b92915050565b600060408201905081810360008301526109de81856108fe565b90506109ed6020830184610968565b9392505050565b6000602082019050610a096000830184610968565b92915050565b6000606082019050610a246000830186610968565b8181036020830152610a3681856108fe565b9050610a456040830184610968565b949350505050565b6000610a57610a68565b9050610a638282610bba565b919050565b6000604051905090565b600067ffffffffffffffff821115610a8d57610a8c610cf2565b5b610a9682610d21565b9050602081019050919050565b600081519050919050565b600082825260208201905092915050565b600081905092915050565b6000610ad582610b3c565b9150610ae083610b3c565b925082821015610af357610af2610c65565b5b828203905092915050565b6000610b0982610b1c565b9050919050565b60008115159050919050565b600073ffffffffffffffffffffffffffffffffffffffff82169050919050565b6000819050919050565b82818337600083830152505050565b60005b83811015610b73578082015181840152602081019050610b58565b83811115610b82576000848401525b50505050565b60006002820490506001821680610ba057607f821691505b60208210811415610bb457610bb3610cc3565b5b50919050565b610bc382610d21565b810181811067ffffffffffffffff82111715610be257610be1610cf2565b5b80604052505050565b6000610bf682610b3c565b91507fffffffffffffffffffffffffffffffffffffffffffffffffffffffffffffffff821415610c2957610c28610c65565b5b600182019050919050565b6000610c3f82610b3c565b9150610c4a83610b3c565b925082610c5a57610c59610c94565b5b828206905092915050565b7f4e487b7100000000000000000000000000000000000000000000000000000000600052601160045260246000fd5b7f4e487b7100000000000000000000000000000000000000000000000000000000600052601260045260246000fd5b7f4e487b7100000000000000000000000000000000000000000000000000000000600052602260045260246000fd5b7f4e487b7100000000000000000000000000000000000000000000000000000000600052604160045260246000fd5b6000601f19601f8301169050919050565b610d3b81610afe565b8114610d4657600080fd5b50565b610d5281610b3c565b8114610d5d57600080fd5b5056fea264697066735822122063f667d3c6e92a4add9a3835cea654ed602ff3ac7d2c8e9c28250a0be8c7cf8e64736f6c63430008040033",
  "immutableReferences": {},
  "source": "// SPDX-License-Identifier: MIT\npragma solidity >=0.5.0 <0.9.0;\n\nimport \"./ownable.sol\";\n\ncontract ZombieFactory is Ownable {\n  uint dnaDigits = 16;\n  uint dnaModulus = 10 ** dnaDigits;\n\n  event NewZombie(uint zombieId, string name, uint dna);\n\n  struct Zombie {\n    string name;\n    uint dna;\n  }\n\n  Zombie[] public zombies;\n\n  mapping(uint => address) public zombieToOwner;\n  mapping(address => uint) public ownerToZombieCount;\n  \n  function _createZombie(string memory _name, uint _dna) internal {\n    zombies.push(Zombie(_name, _dna));\n    uint id = zombies.length - 1;\n    zombieToOwner[id] = msg.sender;\n    ownerToZombieCount[msg.sender]++;\n    emit NewZombie(id, _name, _dna);\n  }\n\n  function _generateRandomDna(string memory _str) private view returns (uint) {\n    uint rand = uint(keccak256(abi.encodePacked(_str)));\n\n    return rand % dnaModulus;\n  }\n\n  function createRandomZombie(string memory _name) public {\n    require(ownerToZombieCount[msg.sender] == 0);\n    uint randDna = _generateRandomDna(_name);\n    _createZombie(_name, randDna);\n  }\n\n}",
  "sourcePath": "/Users/pedrolucinda/Desktop/repositories/solidty/cryptozombies/contracts/ZombieFactory.sol",
  "compiler": {
    "name": "solc",
    "version": "0.8.4+commit.c7e474f2.Emscripten.clang"
  },
  "schemaVersion": "3.4.6",
  "updatedAt": "2022-03-21T18:03:42.930Z",
  "networkType": "ethereum",
  "devdoc": {
    "kind": "dev",
    "methods": {
      "isOwner()": {
        "returns": {
          "_0": "true if `msg.sender` is the owner of the contract."
        }
      },
      "owner()": {
        "returns": {
          "_0": "the address of the owner."
        }
      },
      "renounceOwnership()": {
        "details": "Allows the current owner to relinquish control of the contract."
      },
      "transferOwnership(address)": {
        "details": "Allows the current owner to transfer control of the contract to a newOwner.",
        "params": {
          "newOwner": "The address to transfer ownership to."
        }
      }
    },
    "version": 1
  },
  "userdoc": {
    "kind": "user",
    "methods": {
      "renounceOwnership()": {
        "notice": "Renouncing to ownership will leave the contract without an owner. It will not be possible to call the functions with the `onlyOwner` modifier anymore."
      }
    },
    "version": 1
  }
}