{
  "contractName": "ZombieFeeding",
  "abi": [
    {
      "anonymous": false,
      "inputs": [
        {
          "indexed": false,
          "internalType": "uint256",
          "name": "zombieId",
          "type": "uint256"
        },
        {
          "indexed": false,
          "internalType": "string",
          "name": "name",
          "type": "string"
        },
        {
          "indexed": false,
          "internalType": "uint256",
          "name": "dna",
          "type": "uint256"
        }
      ],
      "name": "NewZombie",
      "type": "event"
    },
    {
      "anonymous": false,
      "inputs": [
        {
          "indexed": true,
          "internalType": "address",
          "name": "previousOwner",
          "type": "address"
        },
        {
          "indexed": true,
          "internalType": "address",
          "name": "newOwner",
          "type": "address"
        }
      ],
      "name": "OwnershipTransferred",
      "type": "event"
    },
    {
      "inputs": [
        {
          "internalType": "string",
          "name": "_name",
          "type": "string"
        }
      ],
      "name": "createRandomZombie",
      "outputs": [],
      "stateMutability": "nonpayable",
      "type": "function"
    },
    {
      "inputs": [],
      "name": "owner",
      "outputs": [
        {
          "internalType": "address",
          "name": "",
          "type": "address"
        }
      ],
      "stateMutability": "view",
      "type": "function",
      "constant": true
    },
    {
      "inputs": [],
      "name": "renounceOwnership",
      "outputs": [],
      "stateMutability": "nonpayable",
      "type": "function"
    },
    {
      "inputs": [
        {
          "internalType": "address",
          "name": "newOwner",
          "type": "address"
        }
      ],
      "name": "transferOwnership",
      "outputs": [],
      "stateMutability": "nonpayable",
      "type": "function"
    },
    {
      "inputs": [
        {
          "internalType": "uint256",
          "name": "",
          "type": "uint256"
        }
      ],
      "name": "zombieToOwner",
      "outputs": [
        {
          "internalType": "address",
          "name": "",
          "type": "address"
        }
      ],
      "stateMutability": "view",
      "type": "function",
      "constant": true
    },
    {
      "inputs": [
        {
          "internalType": "uint256",
          "name": "",
          "type": "uint256"
        }
      ],
      "name": "zombies",
      "outputs": [
        {
          "internalType": "string",
          "name": "name",
          "type": "string"
        },
        {
          "internalType": "uint256",
          "name": "dna",
          "type": "uint256"
        },
        {
          "internalType": "uint32",
          "name": "level",
          "type": "uint32"
        },
        {
          "internalType": "uint32",
          "name": "readyTime",
          "type": "uint32"
        }
      ],
      "stateMutability": "view",
      "type": "function",
      "constant": true
    },
    {
      "inputs": [
        {
          "internalType": "address",
          "name": "_address",
          "type": "address"
        }
      ],
      "name": "setKittyContractAddress",
      "outputs": [],
      "stateMutability": "nonpayable",
      "type": "function"
    },
    {
      "inputs": [
        {
          "internalType": "uint256",
          "name": "_zombieId",
          "type": "uint256"
        },
        {
          "internalType": "uint256",
          "name": "_targetDna",
          "type": "uint256"
        },
        {
          "internalType": "string",
          "name": "_species",
          "type": "string"
        }
      ],
      "name": "feedAndMultiply",
      "outputs": [],
      "stateMutability": "nonpayable",
      "type": "function"
    },
    {
      "inputs": [
        {
          "internalType": "uint256",
          "name": "_zombieId",
          "type": "uint256"
        },
        {
          "internalType": "uint256",
          "name": "_kittyId",
          "type": "uint256"
        }
      ],
      "name": "feedOnKitty",
      "outputs": [],
      "stateMutability": "nonpayable",
      "type": "function"
    }
  ],
  "bytecode": "0x60806040526010600155600154600a6200001a91906200017f565b600255620151806003553480156200003157600080fd5b5062000052620000466200005860201b60201c565b6200006060201b60201c565b62000302565b600033905090565b60008060009054906101000a900473ffffffffffffffffffffffffffffffffffffffff169050816000806101000a81548173ffffffffffffffffffffffffffffffffffffffff021916908373ffffffffffffffffffffffffffffffffffffffff1602179055508173ffffffffffffffffffffffffffffffffffffffff168173ffffffffffffffffffffffffffffffffffffffff167f8be0079c531659141344cd1fd0a4f28419497f9722a3daafe3b4186f6b6457e060405160405180910390a35050565b6000808291508390505b600185111562000176578086048111156200014e576200014d620002c6565b5b60018516156200015e5780820291505b80810290506200016e85620002f5565b94506200012e565b94509492505050565b60006200018c82620002bc565b91506200019983620002bc565b9250620001c87fffffffffffffffffffffffffffffffffffffffffffffffffffffffffffffffff8484620001d0565b905092915050565b600082620001e25760019050620002b5565b81620001f25760009050620002b5565b81600181146200020b576002811462000216576200024c565b6001915050620002b5565b60ff8411156200022b576200022a620002c6565b5b8360020a915084821115620002455762000244620002c6565b5b50620002b5565b5060208310610133831016604e8410600b8410161715620002865782820a90508381111562000280576200027f620002c6565b5b620002b5565b62000295848484600162000124565b92509050818404811115620002af57620002ae620002c6565b5b81810290505b9392505050565b6000819050919050565b7f4e487b7100000000000000000000000000000000000000000000000000000000600052601160045260246000fd5b60008160011c9050919050565b61152a80620003126000396000f3fe608060405234801561001057600080fd5b50600436106100935760003560e01c80636b0bfc80116100665780636b0bfc8014610133578063715018a61461014f5780637bff0a01146101595780638da5cb5b14610175578063f2fde38b1461019357610093565b806317a7f4cc146100985780632052465e146100b4578063528b7b8f146100e75780635f4623f114610117575b600080fd5b6100b260048036038101906100ad9190610dc3565b6101af565b005b6100ce60048036038101906100c99190610d9a565b6102dc565b6040516100de9493929190610fad565b60405180910390f35b61010160048036038101906100fc9190610d9a565b6103c4565b60405161010e9190610f92565b60405180910390f35b610131600480360381019061012c9190610c55565b6103f7565b005b61014d60048036038101906101489190610dff565b61043b565b005b6101576105e1565b005b610173600480360381019061016e9190610d59565b610669565b005b61017d6106ea565b60405161018a9190610f92565b60405180910390f35b6101ad60048036038101906101a89190610c55565b610713565b005b6000600760009054906101000a900473ffffffffffffffffffffffffffffffffffffffff1673ffffffffffffffffffffffffffffffffffffffff1663e98b7f4d836040518263ffffffff1660e01b815260040161020c9190611039565b6101406040518083038186803b15801561022557600080fd5b505afa158015610239573d6000803e3d6000fd5b505050506040513d601f19601f8201168201806040525081019061025d9190610c7e565b909192939495969798509091929394959697509091929394959650909192939495509091929394509091929350909192509091509050809150506102d783826040518060400160405280600581526020017f6b6974747900000000000000000000000000000000000000000000000000000081525061043b565b505050565b600481815481106102ec57600080fd5b906000526020600020906003020160009150905080600001805461030f90611264565b80601f016020809104026020016040519081016040528092919081815260200182805461033b90611264565b80156103885780601f1061035d57610100808354040283529160200191610388565b820191906000526020600020905b81548152906001019060200180831161036b57829003601f168201915b5050505050908060010154908060020160009054906101000a900463ffffffff16908060020160049054906101000a900463ffffffff16905084565b60056020528060005260406000206000915054906101000a900473ffffffffffffffffffffffffffffffffffffffff1681565b80600760006101000a81548173ffffffffffffffffffffffffffffffffffffffff021916908373ffffffffffffffffffffffffffffffffffffffff16021790555050565b3373ffffffffffffffffffffffffffffffffffffffff166005600085815260200190815260200160002060009054906101000a900473ffffffffffffffffffffffffffffffffffffffff1673ffffffffffffffffffffffffffffffffffffffff16146104a657600080fd5b6000600484815481106104e2577f4e487b7100000000000000000000000000000000000000000000000000000000600052603260045260246000fd5b90600052602060002090600302019050600254836105009190611310565b925060006002848360010154610516919061110f565b6105209190611165565b905060405160200161053190610f7d565b60405160208183030381529060405280519060200120836040516020016105589190610f66565b60405160208183030381529060405280519060200120141561059b5760636064826105839190611310565b8261058e9190611196565b610598919061110f565b90505b6105da6040518060400160405280600481526020017f6e616d65000000000000000000000000000000000000000000000000000000008152508261080b565b5050505050565b6105e96109e5565b73ffffffffffffffffffffffffffffffffffffffff166106076106ea565b73ffffffffffffffffffffffffffffffffffffffff161461065d576040517f08c379a000000000000000000000000000000000000000000000000000000000815260040161065490611019565b60405180910390fd5b61066760006109ed565b565b6000600660003373ffffffffffffffffffffffffffffffffffffffff1673ffffffffffffffffffffffffffffffffffffffff16815260200190815260200160002054146106b557600080fd5b60006106c082610ab1565b90506064816106cf9190611310565b816106da9190611196565b90506106e6828261080b565b5050565b60008060009054906101000a900473ffffffffffffffffffffffffffffffffffffffff16905090565b61071b6109e5565b73ffffffffffffffffffffffffffffffffffffffff166107396106ea565b73ffffffffffffffffffffffffffffffffffffffff161461078f576040517f08c379a000000000000000000000000000000000000000000000000000000000815260040161078690611019565b60405180910390fd5b600073ffffffffffffffffffffffffffffffffffffffff168173ffffffffffffffffffffffffffffffffffffffff1614156107ff576040517f08c379a00000000000000000000000000000000000000000000000000000000081526004016107f690610ff9565b60405180910390fd5b610808816109ed565b50565b60046040518060800160405280848152602001838152602001600163ffffffff1681526020016003544261083f919061110f565b63ffffffff168152509080600181540180825580915050600190039060005260206000209060030201600090919091909150600082015181600001908051906020019061088d929190610af6565b506020820151816001015560408201518160020160006101000a81548163ffffffff021916908363ffffffff16021790555060608201518160020160046101000a81548163ffffffff021916908363ffffffff1602179055505050600060016004805490506108fc9190611196565b9050336005600083815260200190815260200160002060006101000a81548173ffffffffffffffffffffffffffffffffffffffff021916908373ffffffffffffffffffffffffffffffffffffffff160217905550600660003373ffffffffffffffffffffffffffffffffffffffff1673ffffffffffffffffffffffffffffffffffffffff16815260200190815260200160002060008154809291906109a0906112c7565b91905055507f88f026aacbbecc90c18411df4b1185fd8d9be2470f1962f192bf84a27d0704b78184846040516109d893929190611054565b60405180910390a1505050565b600033905090565b60008060009054906101000a900473ffffffffffffffffffffffffffffffffffffffff169050816000806101000a81548173ffffffffffffffffffffffffffffffffffffffff021916908373ffffffffffffffffffffffffffffffffffffffff1602179055508173ffffffffffffffffffffffffffffffffffffffff168173ffffffffffffffffffffffffffffffffffffffff167f8be0079c531659141344cd1fd0a4f28419497f9722a3daafe3b4186f6b6457e060405160405180910390a35050565b60008082604051602001610ac59190610f66565b6040516020818303038152906040528051906020012060001c905060025481610aee9190611310565b915050919050565b828054610b0290611264565b90600052602060002090601f016020900481019282610b245760008555610b6b565b82601f10610b3d57805160ff1916838001178555610b6b565b82800160010185558215610b6b579182015b82811115610b6a578251825591602001919060010190610b4f565b5b509050610b789190610b7c565b5090565b5b80821115610b95576000816000905550600101610b7d565b5090565b6000610bac610ba7846110b7565b611092565b905082815260208101848484011115610bc457600080fd5b610bcf848285611222565b509392505050565b600081359050610be6816114af565b92915050565b600081519050610bfb816114c6565b92915050565b600082601f830112610c1257600080fd5b8135610c22848260208601610b99565b91505092915050565b600081359050610c3a816114dd565b92915050565b600081519050610c4f816114dd565b92915050565b600060208284031215610c6757600080fd5b6000610c7584828501610bd7565b91505092915050565b6000806000806000806000806000806101408b8d031215610c9e57600080fd5b6000610cac8d828e01610bec565b9a50506020610cbd8d828e01610bec565b9950506040610cce8d828e01610c40565b9850506060610cdf8d828e01610c40565b9750506080610cf08d828e01610c40565b96505060a0610d018d828e01610c40565b95505060c0610d128d828e01610c40565b94505060e0610d238d828e01610c40565b935050610100610d358d828e01610c40565b925050610120610d478d828e01610c40565b9150509295989b9194979a5092959850565b600060208284031215610d6b57600080fd5b600082013567ffffffffffffffff811115610d8557600080fd5b610d9184828501610c01565b91505092915050565b600060208284031215610dac57600080fd5b6000610dba84828501610c2b565b91505092915050565b60008060408385031215610dd657600080fd5b6000610de485828601610c2b565b9250506020610df585828601610c2b565b9150509250929050565b600080600060608486031215610e1457600080fd5b6000610e2286828701610c2b565b9350506020610e3386828701610c2b565b925050604084013567ffffffffffffffff811115610e5057600080fd5b610e5c86828701610c01565b9150509250925092565b610e6f816111ca565b82525050565b6000610e80826110e8565b610e8a81856110f3565b9350610e9a818560208601611231565b610ea3816113fd565b840191505092915050565b6000610eb9826110e8565b610ec38185611104565b9350610ed3818560208601611231565b80840191505092915050565b6000610eec6026836110f3565b9150610ef78261140e565b604082019050919050565b6000610f0f600583611104565b9150610f1a8261145d565b600582019050919050565b6000610f326020836110f3565b9150610f3d82611486565b602082019050919050565b610f5181611208565b82525050565b610f6081611212565b82525050565b6000610f728284610eae565b915081905092915050565b6000610f8882610f02565b9150819050919050565b6000602082019050610fa76000830184610e66565b92915050565b60006080820190508181036000830152610fc78187610e75565b9050610fd66020830186610f48565b610fe36040830185610f57565b610ff06060830184610f57565b95945050505050565b6000602082019050818103600083015261101281610edf565b9050919050565b6000602082019050818103600083015261103281610f25565b9050919050565b600060208201905061104e6000830184610f48565b92915050565b60006060820190506110696000830186610f48565b818103602083015261107b8185610e75565b905061108a6040830184610f48565b949350505050565b600061109c6110ad565b90506110a88282611296565b919050565b6000604051905090565b600067ffffffffffffffff8211156110d2576110d16113ce565b5b6110db826113fd565b9050602081019050919050565b600081519050919050565b600082825260208201905092915050565b600081905092915050565b600061111a82611208565b915061112583611208565b9250827fffffffffffffffffffffffffffffffffffffffffffffffffffffffffffffffff0382111561115a57611159611341565b5b828201905092915050565b600061117082611208565b915061117b83611208565b92508261118b5761118a611370565b5b828204905092915050565b60006111a182611208565b91506111ac83611208565b9250828210156111bf576111be611341565b5b828203905092915050565b60006111d5826111e8565b9050919050565b60008115159050919050565b600073ffffffffffffffffffffffffffffffffffffffff82169050919050565b6000819050919050565b600063ffffffff82169050919050565b82818337600083830152505050565b60005b8381101561124f578082015181840152602081019050611234565b8381111561125e576000848401525b50505050565b6000600282049050600182168061127c57607f821691505b602082108114156112905761128f61139f565b5b50919050565b61129f826113fd565b810181811067ffffffffffffffff821117156112be576112bd6113ce565b5b80604052505050565b60006112d282611208565b91507fffffffffffffffffffffffffffffffffffffffffffffffffffffffffffffffff82141561130557611304611341565b5b600182019050919050565b600061131b82611208565b915061132683611208565b92508261133657611335611370565b5b828206905092915050565b7f4e487b7100000000000000000000000000000000000000000000000000000000600052601160045260246000fd5b7f4e487b7100000000000000000000000000000000000000000000000000000000600052601260045260246000fd5b7f4e487b7100000000000000000000000000000000000000000000000000000000600052602260045260246000fd5b7f4e487b7100000000000000000000000000000000000000000000000000000000600052604160045260246000fd5b6000601f19601f8301169050919050565b7f4f776e61626c653a206e6577206f776e657220697320746865207a65726f206160008201527f6464726573730000000000000000000000000000000000000000000000000000602082015250565b7f6b69747479000000000000000000000000000000000000000000000000000000600082015250565b7f4f776e61626c653a2063616c6c6572206973206e6f7420746865206f776e6572600082015250565b6114b8816111ca565b81146114c357600080fd5b50565b6114cf816111dc565b81146114da57600080fd5b50565b6114e681611208565b81146114f157600080fd5b5056fea26469706673582212206d10cea5c0a933f8db4b384fb791b86bbf824bcc79f7e05ffaff4693469040f964736f6c63430008040033",
  "immutableReferences": {},
  "source": "// SPDX-License-Identifier: MIT\npragma solidity >=0.5.0 <0.9.0;\nimport './ZombieFactory.sol';\n\n abstract contract KittyInterface {\n  function getKitty(uint256 _id) virtual external view returns (\n    bool isGestating,\n    bool isReady,\n    uint256 cooldownIndex,\n    uint256 nextActionAt,\n    uint256 siringWithId,\n    uint256 birthTime,\n    uint256 matronId,\n    uint256 sireId,\n    uint256 generation,\n    uint256 genes\n  );\n}\n\ncontract ZombieFeeding is ZombieFactory{\n\n  KittyInterface kittyContract;\n\n  function setKittyContractAddress(address _address) external {\n   kittyContract = KittyInterface(_address);\n  }\n\n  function feedAndMultiply(uint _zombieId, uint _targetDna, string memory _species) public{\n    require(zombieToOwner[_zombieId] == msg.sender);\n    \n    Zombie storage myZombie = zombies[_zombieId];\n    _targetDna = _targetDna % dnaModulus;\n    uint newDna = (myZombie.dna + _targetDna) / 2;\n\n    if(keccak256(abi.encodePacked(_species)) == keccak256(abi.encodePacked(\"kitty\"))){\n       newDna = newDna - newDna % 100 + 99;\n    }\n\n     _createZombie(\"name\", newDna);\n  }\n\n  function feedOnKitty(uint _zombieId, uint _kittyId) public {\n    uint kittyDna;\n     (,,,,,,,,,kittyDna) = kittyContract.getKitty(_kittyId);\n    feedAndMultiply(_zombieId, kittyDna, \"kitty\");\n  }\n\n}",
  "sourcePath": "/Users/pedrolucinda/Documents/repositories/solidty/cryptozombies/contracts/ZombieFeeding.sol",
  "compiler": {
    "name": "solc",
    "version": "0.8.4+commit.c7e474f2.Emscripten.clang"
  },
  "schemaVersion": "3.4.6",
  "updatedAt": "2022-04-01T15:15:15.179Z",
  "networkType": "ethereum",
  "devdoc": {
    "kind": "dev",
    "methods": {
      "owner()": {
        "details": "Returns the address of the current owner."
      },
      "renounceOwnership()": {
        "details": "Leaves the contract without owner. It will not be possible to call `onlyOwner` functions anymore. Can only be called by the current owner. NOTE: Renouncing ownership will leave the contract without an owner, thereby removing any functionality that is only available to the owner."
      },
      "transferOwnership(address)": {
        "details": "Transfers ownership of the contract to a new account (`newOwner`). Can only be called by the current owner."
      }
    },
    "version": 1
  },
  "userdoc": {
    "kind": "user",
    "methods": {},
    "version": 1
  }
}