{
  "contractName": "ZombieHelper",
  "abi": [
    {
      "anonymous": false,
      "inputs": [
        {
          "indexed": false,
          "internalType": "uint256",
          "name": "zombieId",
          "type": "uint256"
        },
        {
          "indexed": false,
          "internalType": "string",
          "name": "name",
          "type": "string"
        },
        {
          "indexed": false,
          "internalType": "uint256",
          "name": "dna",
          "type": "uint256"
        }
      ],
      "name": "NewZombie",
      "type": "event"
    },
    {
      "anonymous": false,
      "inputs": [
        {
          "indexed": true,
          "internalType": "address",
          "name": "previousOwner",
          "type": "address"
        },
        {
          "indexed": true,
          "internalType": "address",
          "name": "newOwner",
          "type": "address"
        }
      ],
      "name": "OwnershipTransferred",
      "type": "event"
    },
    {
      "inputs": [
        {
          "internalType": "string",
          "name": "_name",
          "type": "string"
        }
      ],
      "name": "createRandomZombie",
      "outputs": [],
      "stateMutability": "nonpayable",
      "type": "function"
    },
    {
      "inputs": [
        {
          "internalType": "uint256",
          "name": "_zombieId",
          "type": "uint256"
        },
        {
          "internalType": "uint256",
          "name": "_kittyId",
          "type": "uint256"
        }
      ],
      "name": "feedOnKitty",
      "outputs": [],
      "stateMutability": "nonpayable",
      "type": "function"
    },
    {
      "inputs": [],
      "name": "owner",
      "outputs": [
        {
          "internalType": "address",
          "name": "",
          "type": "address"
        }
      ],
      "stateMutability": "view",
      "type": "function"
    },
    {
      "inputs": [],
      "name": "renounceOwnership",
      "outputs": [],
      "stateMutability": "nonpayable",
      "type": "function"
    },
    {
      "inputs": [
        {
          "internalType": "address",
          "name": "_address",
          "type": "address"
        }
      ],
      "name": "setKittyContractAddress",
      "outputs": [],
      "stateMutability": "nonpayable",
      "type": "function"
    },
    {
      "inputs": [
        {
          "internalType": "address",
          "name": "newOwner",
          "type": "address"
        }
      ],
      "name": "transferOwnership",
      "outputs": [],
      "stateMutability": "nonpayable",
      "type": "function"
    },
    {
      "inputs": [
        {
          "internalType": "uint256",
          "name": "",
          "type": "uint256"
        }
      ],
      "name": "zombieToOwner",
      "outputs": [
        {
          "internalType": "address",
          "name": "",
          "type": "address"
        }
      ],
      "stateMutability": "view",
      "type": "function"
    },
    {
      "inputs": [
        {
          "internalType": "uint256",
          "name": "",
          "type": "uint256"
        }
      ],
      "name": "zombies",
      "outputs": [
        {
          "internalType": "string",
          "name": "name",
          "type": "string"
        },
        {
          "internalType": "uint256",
          "name": "dna",
          "type": "uint256"
        },
        {
          "internalType": "uint32",
          "name": "level",
          "type": "uint32"
        },
        {
          "internalType": "uint32",
          "name": "readyTime",
          "type": "uint32"
        }
      ],
      "stateMutability": "view",
      "type": "function"
    },
    {
      "inputs": [
        {
          "internalType": "uint256",
          "name": "_zombieId",
          "type": "uint256"
        },
        {
          "internalType": "string",
          "name": "_newName",
          "type": "string"
        }
      ],
      "name": "changeName",
      "outputs": [],
      "stateMutability": "nonpayable",
      "type": "function"
    },
    {
      "inputs": [
        {
          "internalType": "uint256",
          "name": "_zombieId",
          "type": "uint256"
        },
        {
          "internalType": "uint256",
          "name": "_newDna",
          "type": "uint256"
        }
      ],
      "name": "changeDna",
      "outputs": [],
      "stateMutability": "nonpayable",
      "type": "function"
    },
    {
      "inputs": [
        {
          "internalType": "address",
          "name": "_owner",
          "type": "address"
        }
      ],
      "name": "getZombiesByOwner",
      "outputs": [
        {
          "internalType": "uint256[]",
          "name": "",
          "type": "uint256[]"
        }
      ],
      "stateMutability": "view",
      "type": "function"
    }
  ],
  "bytecode": "0x60806040526010600155600154600a6200001a91906200017f565b600255620151806003553480156200003157600080fd5b5062000052620000466200005860201b60201c565b6200006060201b60201c565b62000302565b600033905090565b60008060009054906101000a900473ffffffffffffffffffffffffffffffffffffffff169050816000806101000a81548173ffffffffffffffffffffffffffffffffffffffff021916908373ffffffffffffffffffffffffffffffffffffffff1602179055508173ffffffffffffffffffffffffffffffffffffffff168173ffffffffffffffffffffffffffffffffffffffff167f8be0079c531659141344cd1fd0a4f28419497f9722a3daafe3b4186f6b6457e060405160405180910390a35050565b6000808291508390505b600185111562000176578086048111156200014e576200014d620002c6565b5b60018516156200015e5780820291505b80810290506200016e85620002f5565b94506200012e565b94509492505050565b60006200018c82620002bc565b91506200019983620002bc565b9250620001c87fffffffffffffffffffffffffffffffffffffffffffffffffffffffffffffffff8484620001d0565b905092915050565b600082620001e25760019050620002b5565b81620001f25760009050620002b5565b81600181146200020b576002811462000216576200024c565b6001915050620002b5565b60ff8411156200022b576200022a620002c6565b5b8360020a915084821115620002455762000244620002c6565b5b50620002b5565b5060208310610133831016604e8410600b8410161715620002865782820a90508381111562000280576200027f620002c6565b5b620002b5565b62000295848484600162000124565b92509050818404811115620002af57620002ae620002c6565b5b81810290505b9392505050565b6000819050919050565b7f4e487b7100000000000000000000000000000000000000000000000000000000600052601160045260246000fd5b60008160011c9050919050565b611c2d80620003126000396000f3fe608060405234801561001057600080fd5b50600436106100a95760003560e01c80635faf2880116100715780635faf288014610179578063715018a6146101955780637bff0a011461019f5780638da5cb5b146101bb578063c39cbef1146101d9578063f2fde38b146101f5576100a9565b806317a7f4cc146100ae5780632052465e146100ca5780634412e104146100fd578063528b7b8f1461012d5780635f4623f11461015d575b600080fd5b6100c860048036038101906100c3919061144d565b610211565b005b6100e460048036038101906100df91906113cc565b61033e565b6040516100f49493929190611677565b60405180910390f35b61011760048036038101906101129190611287565b610426565b6040516101249190611655565b60405180910390f35b610147600480360381019061014291906113cc565b6105c5565b604051610154919061163a565b60405180910390f35b61017760048036038101906101729190611287565b6105f8565b005b610193600480360381019061018e919061144d565b6106b8565b005b61019d6107ea565b005b6101b960048036038101906101b4919061138b565b610872565b005b6101c36108f3565b6040516101d0919061163a565b60405180910390f35b6101f360048036038101906101ee91906113f5565b61091c565b005b61020f600480360381019061020a9190611287565b610a5a565b005b6000600760009054906101000a900473ffffffffffffffffffffffffffffffffffffffff1673ffffffffffffffffffffffffffffffffffffffff1663e98b7f4d836040518263ffffffff1660e01b815260040161026e9190611703565b6101406040518083038186803b15801561028757600080fd5b505afa15801561029b573d6000803e3d6000fd5b505050506040513d601f19601f820116820180604052508101906102bf91906112b0565b9091929394959697985090919293949596975090919293949596509091929394955090919293945090919293509091925090915090508091505061033983826040518060400160405280600581526020017f6b69747479000000000000000000000000000000000000000000000000000000815250610b52565b505050565b6004818154811061034e57600080fd5b906000526020600020906003020160009150905080600001805461037190611967565b80601f016020809104026020016040519081016040528092919081815260200182805461039d90611967565b80156103ea5780601f106103bf576101008083540402835291602001916103ea565b820191906000526020600020905b8154815290600101906020018083116103cd57829003601f168201915b5050505050908060010154908060020160009054906101000a900463ffffffff16908060020160049054906101000a900463ffffffff16905084565b60606000600660008473ffffffffffffffffffffffffffffffffffffffff1673ffffffffffffffffffffffffffffffffffffffff1681526020019081526020016000205467ffffffffffffffff8111156104a9577f4e487b7100000000000000000000000000000000000000000000000000000000600052604160045260246000fd5b6040519080825280602002602001820160405280156104d75781602001602082028036833780820191505090505b5090506000805b6004805490508110156105ba578473ffffffffffffffffffffffffffffffffffffffff166005600083815260200190815260200160002060009054906101000a900473ffffffffffffffffffffffffffffffffffffffff1673ffffffffffffffffffffffffffffffffffffffff1614156105a7578083838151811061058c577f4e487b7100000000000000000000000000000000000000000000000000000000600052603260045260246000fd5b60200260200101818152505081806105a3906119ca565b9250505b80806105b2906119ca565b9150506104de565b508192505050919050565b60056020528060005260406000206000915054906101000a900473ffffffffffffffffffffffffffffffffffffffff1681565b610600610d13565b73ffffffffffffffffffffffffffffffffffffffff1661061e6108f3565b73ffffffffffffffffffffffffffffffffffffffff1614610674576040517f08c379a000000000000000000000000000000000000000000000000000000000815260040161066b906116e3565b60405180910390fd5b80600760006101000a81548173ffffffffffffffffffffffffffffffffffffffff021916908373ffffffffffffffffffffffffffffffffffffffff16021790555050565b60148281600482815481106106f6577f4e487b7100000000000000000000000000000000000000000000000000000000600052603260045260246000fd5b906000526020600020906003020160020160009054906101000a900463ffffffff1663ffffffff16101561072957600080fd5b6005600085815260200190815260200160002060009054906101000a900473ffffffffffffffffffffffffffffffffffffffff1673ffffffffffffffffffffffffffffffffffffffff163373ffffffffffffffffffffffffffffffffffffffff161461079457600080fd5b82600485815481106107cf577f4e487b7100000000000000000000000000000000000000000000000000000000600052603260045260246000fd5b90600052602060002090600302016001018190555050505050565b6107f2610d13565b73ffffffffffffffffffffffffffffffffffffffff166108106108f3565b73ffffffffffffffffffffffffffffffffffffffff1614610866576040517f08c379a000000000000000000000000000000000000000000000000000000000815260040161085d906116e3565b60405180910390fd5b6108706000610d1b565b565b6000600660003373ffffffffffffffffffffffffffffffffffffffff1673ffffffffffffffffffffffffffffffffffffffff16815260200190815260200160002054146108be57600080fd5b60006108c982610ddf565b90506064816108d89190611a13565b816108e39190611899565b90506108ef8282610e24565b5050565b60008060009054906101000a900473ffffffffffffffffffffffffffffffffffffffff16905090565b600283816004828154811061095a577f4e487b7100000000000000000000000000000000000000000000000000000000600052603260045260246000fd5b906000526020600020906003020160020160009054906101000a900463ffffffff1663ffffffff16101561098d57600080fd5b6005600086815260200190815260200160002060009054906101000a900473ffffffffffffffffffffffffffffffffffffffff1673ffffffffffffffffffffffffffffffffffffffff163373ffffffffffffffffffffffffffffffffffffffff16146109f857600080fd5b838360048781548110610a34577f4e487b7100000000000000000000000000000000000000000000000000000000600052603260045260246000fd5b90600052602060002090600302016000019190610a52929190611058565b505050505050565b610a62610d13565b73ffffffffffffffffffffffffffffffffffffffff16610a806108f3565b73ffffffffffffffffffffffffffffffffffffffff1614610ad6576040517f08c379a0000000000000000000000000000000000000000000000000000000008152600401610acd906116e3565b60405180910390fd5b600073ffffffffffffffffffffffffffffffffffffffff168173ffffffffffffffffffffffffffffffffffffffff161415610b46576040517f08c379a0000000000000000000000000000000000000000000000000000000008152600401610b3d906116c3565b60405180910390fd5b610b4f81610d1b565b50565b3373ffffffffffffffffffffffffffffffffffffffff166005600085815260200190815260200160002060009054906101000a900473ffffffffffffffffffffffffffffffffffffffff1673ffffffffffffffffffffffffffffffffffffffff1614610bbd57600080fd5b600060048481548110610bf9577f4e487b7100000000000000000000000000000000000000000000000000000000600052603260045260246000fd5b90600052602060002090600302019050610c1281610ffe565b610c1b57600080fd5b60025483610c299190611a13565b925060006002848360010154610c3f9190611812565b610c499190611868565b9050604051602001610c5a90611625565b6040516020818303038152906040528051906020012083604051602001610c81919061160e565b604051602081830303815290604052805190602001201415610cc4576063606482610cac9190611a13565b82610cb79190611899565b610cc19190611812565b90505b610d036040518060400160405280600481526020017f6e616d650000000000000000000000000000000000000000000000000000000081525082610e24565b610d0c82611025565b5050505050565b600033905090565b60008060009054906101000a900473ffffffffffffffffffffffffffffffffffffffff169050816000806101000a81548173ffffffffffffffffffffffffffffffffffffffff021916908373ffffffffffffffffffffffffffffffffffffffff1602179055508173ffffffffffffffffffffffffffffffffffffffff168173ffffffffffffffffffffffffffffffffffffffff167f8be0079c531659141344cd1fd0a4f28419497f9722a3daafe3b4186f6b6457e060405160405180910390a35050565b60008082604051602001610df3919061160e565b6040516020818303038152906040528051906020012060001c905060025481610e1c9190611a13565b915050919050565b60046040518060800160405280848152602001838152602001600163ffffffff16815260200160035442610e589190611812565b63ffffffff1681525090806001815401808255809150506001900390600052602060002090600302016000909190919091506000820151816000019080519060200190610ea69291906110de565b506020820151816001015560408201518160020160006101000a81548163ffffffff021916908363ffffffff16021790555060608201518160020160046101000a81548163ffffffff021916908363ffffffff160217905550505060006001600480549050610f159190611899565b9050336005600083815260200190815260200160002060006101000a81548173ffffffffffffffffffffffffffffffffffffffff021916908373ffffffffffffffffffffffffffffffffffffffff160217905550600660003373ffffffffffffffffffffffffffffffffffffffff1673ffffffffffffffffffffffffffffffffffffffff1681526020019081526020016000206000815480929190610fb9906119ca565b91905055507f88f026aacbbecc90c18411df4b1185fd8d9be2470f1962f192bf84a27d0704b7818484604051610ff19392919061171e565b60405180910390a1505050565b6000428260020160049054906101000a900463ffffffff1663ffffffff1611159050919050565b600354426110339190611812565b8160020160046101000a81548163ffffffff021916908363ffffffff16021790555050565b82805461106490611967565b90600052602060002090601f01602090048101928261108657600085556110cd565b82601f1061109f57803560ff19168380011785556110cd565b828001600101855582156110cd579182015b828111156110cc5782358255916020019190600101906110b1565b5b5090506110da9190611164565b5090565b8280546110ea90611967565b90600052602060002090601f01602090048101928261110c5760008555611153565b82601f1061112557805160ff1916838001178555611153565b82800160010185558215611153579182015b82811115611152578251825591602001919060010190611137565b5b5090506111609190611164565b5090565b5b8082111561117d576000816000905550600101611165565b5090565b600061119461118f84611781565b61175c565b9050828152602081018484840111156111ac57600080fd5b6111b7848285611925565b509392505050565b6000813590506111ce81611bb2565b92915050565b6000815190506111e381611bc9565b92915050565b60008083601f8401126111fb57600080fd5b8235905067ffffffffffffffff81111561121457600080fd5b60208301915083600182028301111561122c57600080fd5b9250929050565b600082601f83011261124457600080fd5b8135611254848260208601611181565b91505092915050565b60008135905061126c81611be0565b92915050565b60008151905061128181611be0565b92915050565b60006020828403121561129957600080fd5b60006112a7848285016111bf565b91505092915050565b6000806000806000806000806000806101408b8d0312156112d057600080fd5b60006112de8d828e016111d4565b9a505060206112ef8d828e016111d4565b99505060406113008d828e01611272565b98505060606113118d828e01611272565b97505060806113228d828e01611272565b96505060a06113338d828e01611272565b95505060c06113448d828e01611272565b94505060e06113558d828e01611272565b9350506101006113678d828e01611272565b9250506101206113798d828e01611272565b9150509295989b9194979a5092959850565b60006020828403121561139d57600080fd5b600082013567ffffffffffffffff8111156113b757600080fd5b6113c384828501611233565b91505092915050565b6000602082840312156113de57600080fd5b60006113ec8482850161125d565b91505092915050565b60008060006040848603121561140a57600080fd5b60006114188682870161125d565b935050602084013567ffffffffffffffff81111561143557600080fd5b611441868287016111e9565b92509250509250925092565b6000806040838503121561146057600080fd5b600061146e8582860161125d565b925050602061147f8582860161125d565b9150509250929050565b600061149583836115e1565b60208301905092915050565b6114aa816118cd565b82525050565b60006114bb826117c2565b6114c581856117e5565b93506114d0836117b2565b8060005b838110156115015781516114e88882611489565b97506114f3836117d8565b9250506001810190506114d4565b5085935050505092915050565b6000611519826117cd565b61152381856117f6565b9350611533818560208601611934565b61153c81611b00565b840191505092915050565b6000611552826117cd565b61155c8185611807565b935061156c818560208601611934565b80840191505092915050565b60006115856026836117f6565b915061159082611b11565b604082019050919050565b60006115a8600583611807565b91506115b382611b60565b600582019050919050565b60006115cb6020836117f6565b91506115d682611b89565b602082019050919050565b6115ea8161190b565b82525050565b6115f98161190b565b82525050565b61160881611915565b82525050565b600061161a8284611547565b915081905092915050565b60006116308261159b565b9150819050919050565b600060208201905061164f60008301846114a1565b92915050565b6000602082019050818103600083015261166f81846114b0565b905092915050565b60006080820190508181036000830152611691818761150e565b90506116a060208301866115f0565b6116ad60408301856115ff565b6116ba60608301846115ff565b95945050505050565b600060208201905081810360008301526116dc81611578565b9050919050565b600060208201905081810360008301526116fc816115be565b9050919050565b600060208201905061171860008301846115f0565b92915050565b600060608201905061173360008301866115f0565b8181036020830152611745818561150e565b905061175460408301846115f0565b949350505050565b6000611766611777565b90506117728282611999565b919050565b6000604051905090565b600067ffffffffffffffff82111561179c5761179b611ad1565b5b6117a582611b00565b9050602081019050919050565b6000819050602082019050919050565b600081519050919050565b600081519050919050565b6000602082019050919050565b600082825260208201905092915050565b600082825260208201905092915050565b600081905092915050565b600061181d8261190b565b91506118288361190b565b9250827fffffffffffffffffffffffffffffffffffffffffffffffffffffffffffffffff0382111561185d5761185c611a44565b5b828201905092915050565b60006118738261190b565b915061187e8361190b565b92508261188e5761188d611a73565b5b828204905092915050565b60006118a48261190b565b91506118af8361190b565b9250828210156118c2576118c1611a44565b5b828203905092915050565b60006118d8826118eb565b9050919050565b60008115159050919050565b600073ffffffffffffffffffffffffffffffffffffffff82169050919050565b6000819050919050565b600063ffffffff82169050919050565b82818337600083830152505050565b60005b83811015611952578082015181840152602081019050611937565b83811115611961576000848401525b50505050565b6000600282049050600182168061197f57607f821691505b6020821081141561199357611992611aa2565b5b50919050565b6119a282611b00565b810181811067ffffffffffffffff821117156119c1576119c0611ad1565b5b80604052505050565b60006119d58261190b565b91507fffffffffffffffffffffffffffffffffffffffffffffffffffffffffffffffff821415611a0857611a07611a44565b5b600182019050919050565b6000611a1e8261190b565b9150611a298361190b565b925082611a3957611a38611a73565b5b828206905092915050565b7f4e487b7100000000000000000000000000000000000000000000000000000000600052601160045260246000fd5b7f4e487b7100000000000000000000000000000000000000000000000000000000600052601260045260246000fd5b7f4e487b7100000000000000000000000000000000000000000000000000000000600052602260045260246000fd5b7f4e487b7100000000000000000000000000000000000000000000000000000000600052604160045260246000fd5b6000601f19601f8301169050919050565b7f4f776e61626c653a206e6577206f776e657220697320746865207a65726f206160008201527f6464726573730000000000000000000000000000000000000000000000000000602082015250565b7f6b69747479000000000000000000000000000000000000000000000000000000600082015250565b7f4f776e61626c653a2063616c6c6572206973206e6f7420746865206f776e6572600082015250565b611bbb816118cd565b8114611bc657600080fd5b50565b611bd2816118df565b8114611bdd57600080fd5b50565b611be98161190b565b8114611bf457600080fd5b5056fea26469706673582212206a89c67ddfc8a4ea444a9f0e76cc11fb3579942c4d3c457b29de30061e3b9b7a64736f6c63430008040033",
  "immutableReferences": {},
  "source": "// SPDX-License-Identifier: MIT\r\npragma solidity >=0.5.0 <0.9.0;\r\n\r\nimport \"./ZombieFeeding.sol\";\r\n\r\n\r\ncontract ZombieHelper is ZombieFeeding {\r\n  \r\n  modifier aboveLevel(uint _level, uint _zombieId) {\r\n    require(zombies[_zombieId].level >= _level);\r\n    _;\r\n  }\r\n  function changeName(uint _zombieId, string calldata _newName) external aboveLevel(2, _zombieId){\r\n    require(msg.sender == zombieToOwner[_zombieId]);\r\n\r\n    zombies[_zombieId].name = _newName;\r\n  }\r\n\r\n  function changeDna(uint _zombieId, uint _newDna) external  aboveLevel(20, _zombieId) {\r\n    require(msg.sender == zombieToOwner[_zombieId]);\r\n     zombies[_zombieId].dna = _newDna;\r\n  }\r\n\r\n    function getZombiesByOwner(address _owner) external view returns( uint[] memory) {\r\n      // local array of legth of the number of nfts the owner has\r\n      uint[] memory result =  new uint[](ownerZombieCount[_owner]);\r\n\r\n      uint counter = 0;\r\n\r\n      for (uint i = 0; i < zombies.length; i++) {\r\n        if(zombieToOwner[i] == _owner){\r\n          result[counter] = i;\r\n          counter++;\r\n        }\r\n      }\r\n\r\n      return result;\r\n  }\r\n\r\n\r\n}",
  "sourcePath": "/home/pedrolucinda/repos/solidity/zombies_eth_web3/contracts/Zombiehelper.sol",
  "compiler": {
    "name": "solc",
    "version": "0.8.4+commit.c7e474f2.Emscripten.clang"
  },
  "schemaVersion": "3.4.4",
  "updatedAt": "2022-04-26T22:37:23.823Z",
  "devdoc": {
    "kind": "dev",
    "methods": {
      "owner()": {
        "details": "Returns the address of the current owner."
      },
      "renounceOwnership()": {
        "details": "Leaves the contract without owner. It will not be possible to call `onlyOwner` functions anymore. Can only be called by the current owner. NOTE: Renouncing ownership will leave the contract without an owner, thereby removing any functionality that is only available to the owner."
      },
      "transferOwnership(address)": {
        "details": "Transfers ownership of the contract to a new account (`newOwner`). Can only be called by the current owner."
      }
    },
    "version": 1
  },
  "userdoc": {
    "kind": "user",
    "methods": {},
    "version": 1
  }
}