{
  "contractName": "ZombieFeeding",
  "abi": [
    {
      "anonymous": false,
      "inputs": [
        {
          "indexed": false,
          "internalType": "uint256",
          "name": "zombieId",
          "type": "uint256"
        },
        {
          "indexed": false,
          "internalType": "string",
          "name": "name",
          "type": "string"
        },
        {
          "indexed": false,
          "internalType": "uint256",
          "name": "dna",
          "type": "uint256"
        }
      ],
      "name": "NewZombie",
      "type": "event"
    },
    {
      "anonymous": false,
      "inputs": [
        {
          "indexed": true,
          "internalType": "address",
          "name": "previousOwner",
          "type": "address"
        },
        {
          "indexed": true,
          "internalType": "address",
          "name": "newOwner",
          "type": "address"
        }
      ],
      "name": "OwnershipTransferred",
      "type": "event"
    },
    {
      "inputs": [
        {
          "internalType": "string",
          "name": "_name",
          "type": "string"
        }
      ],
      "name": "createRandomZombie",
      "outputs": [],
      "stateMutability": "nonpayable",
      "type": "function"
    },
    {
      "inputs": [],
      "name": "isOwner",
      "outputs": [
        {
          "internalType": "bool",
          "name": "",
          "type": "bool"
        }
      ],
      "stateMutability": "view",
      "type": "function",
      "constant": true
    },
    {
      "inputs": [],
      "name": "owner",
      "outputs": [
        {
          "internalType": "address",
          "name": "",
          "type": "address"
        }
      ],
      "stateMutability": "view",
      "type": "function",
      "constant": true
    },
    {
      "inputs": [],
      "name": "renounceOwnership",
      "outputs": [],
      "stateMutability": "nonpayable",
      "type": "function"
    },
    {
      "inputs": [
        {
          "internalType": "address",
          "name": "newOwner",
          "type": "address"
        }
      ],
      "name": "transferOwnership",
      "outputs": [],
      "stateMutability": "nonpayable",
      "type": "function"
    },
    {
      "inputs": [
        {
          "internalType": "uint256",
          "name": "",
          "type": "uint256"
        }
      ],
      "name": "zombieToOwner",
      "outputs": [
        {
          "internalType": "address",
          "name": "",
          "type": "address"
        }
      ],
      "stateMutability": "view",
      "type": "function",
      "constant": true
    },
    {
      "inputs": [
        {
          "internalType": "uint256",
          "name": "",
          "type": "uint256"
        }
      ],
      "name": "zombies",
      "outputs": [
        {
          "internalType": "string",
          "name": "name",
          "type": "string"
        },
        {
          "internalType": "uint256",
          "name": "dna",
          "type": "uint256"
        },
        {
          "internalType": "uint32",
          "name": "level",
          "type": "uint32"
        },
        {
          "internalType": "uint32",
          "name": "readyTime",
          "type": "uint32"
        }
      ],
      "stateMutability": "view",
      "type": "function",
      "constant": true
    },
    {
      "inputs": [
        {
          "internalType": "address",
          "name": "_address",
          "type": "address"
        }
      ],
      "name": "setKittyContractAddress",
      "outputs": [],
      "stateMutability": "nonpayable",
      "type": "function"
    },
    {
      "inputs": [
        {
          "internalType": "uint256",
          "name": "_zombieId",
          "type": "uint256"
        },
        {
          "internalType": "uint256",
          "name": "_targetDna",
          "type": "uint256"
        },
        {
          "internalType": "string",
          "name": "_species",
          "type": "string"
        }
      ],
      "name": "feedAndMultiply",
      "outputs": [],
      "stateMutability": "nonpayable",
      "type": "function"
    },
    {
      "inputs": [
        {
          "internalType": "uint256",
          "name": "_zombieId",
          "type": "uint256"
        },
        {
          "internalType": "uint256",
          "name": "_kittyId",
          "type": "uint256"
        }
      ],
      "name": "feedOnKitty",
      "outputs": [],
      "stateMutability": "nonpayable",
      "type": "function"
    }
  ],
  "bytecode": "0x60806040526010600155600154600a6200001a91906200014e565b600255620151806003553480156200003157600080fd5b50336000806101000a81548173ffffffffffffffffffffffffffffffffffffffff021916908373ffffffffffffffffffffffffffffffffffffffff16021790555060008054906101000a900473ffffffffffffffffffffffffffffffffffffffff1673ffffffffffffffffffffffffffffffffffffffff16600073ffffffffffffffffffffffffffffffffffffffff167f8be0079c531659141344cd1fd0a4f28419497f9722a3daafe3b4186f6b6457e060405160405180910390a3620002d1565b6000808291508390505b600185111562000145578086048111156200011d576200011c62000295565b5b60018516156200012d5780820291505b80810290506200013d85620002c4565b9450620000fd565b94509492505050565b60006200015b826200028b565b915062000168836200028b565b9250620001977fffffffffffffffffffffffffffffffffffffffffffffffffffffffffffffffff84846200019f565b905092915050565b600082620001b1576001905062000284565b81620001c1576000905062000284565b8160018114620001da5760028114620001e5576200021b565b600191505062000284565b60ff841115620001fa57620001f962000295565b5b8360020a91508482111562000214576200021362000295565b5b5062000284565b5060208310610133831016604e8410600b8410161715620002555782820a9050838111156200024f576200024e62000295565b5b62000284565b620002648484846001620000f3565b925090508184048111156200027e576200027d62000295565b5b81810290505b9392505050565b6000819050919050565b7f4e487b7100000000000000000000000000000000000000000000000000000000600052601160045260246000fd5b60008160011c9050919050565b61146d80620002e16000396000f3fe608060405234801561001057600080fd5b506004361061009e5760003560e01c8063715018a611610066578063715018a61461015a5780637bff0a01146101645780638da5cb5b146101805780638f32d59b1461019e578063f2fde38b146101bc5761009e565b806317a7f4cc146100a35780632052465e146100bf578063528b7b8f146100f25780635f4623f1146101225780636b0bfc801461013e575b600080fd5b6100bd60048036038101906100b89190610dda565b6101d8565b005b6100d960048036038101906100d49190610db1565b610305565b6040516100e99493929190610fa8565b60405180910390f35b61010c60048036038101906101079190610db1565b6103ed565b6040516101199190610f72565b60405180910390f35b61013c60048036038101906101379190610c6c565b610420565b005b61015860048036038101906101539190610e16565b610464565b005b61016261060a565b005b61017e60048036038101906101799190610d70565b6106d9565b005b61018861075a565b6040516101959190610f72565b60405180910390f35b6101a6610783565b6040516101b39190610f8d565b60405180910390f35b6101d660048036038101906101d19190610c6c565b6107da565b005b6000600760009054906101000a900473ffffffffffffffffffffffffffffffffffffffff1673ffffffffffffffffffffffffffffffffffffffff1663e98b7f4d836040518263ffffffff1660e01b81526004016102359190610ff4565b6101406040518083038186803b15801561024e57600080fd5b505afa158015610262573d6000803e3d6000fd5b505050506040513d601f19601f820116820180604052508101906102869190610c95565b9091929394959697985090919293949596975090919293949596509091929394955090919293945090919293509091925090915090508091505061030083826040518060400160405280600581526020017f6b69747479000000000000000000000000000000000000000000000000000000815250610464565b505050565b6004818154811061031557600080fd5b90600052602060002090600302016000915090508060000180546103389061121f565b80601f01602080910402602001604051908101604052809291908181526020018280546103649061121f565b80156103b15780601f10610386576101008083540402835291602001916103b1565b820191906000526020600020905b81548152906001019060200180831161039457829003601f168201915b5050505050908060010154908060020160009054906101000a900463ffffffff16908060020160049054906101000a900463ffffffff16905084565b60056020528060005260406000206000915054906101000a900473ffffffffffffffffffffffffffffffffffffffff1681565b80600760006101000a81548173ffffffffffffffffffffffffffffffffffffffff021916908373ffffffffffffffffffffffffffffffffffffffff16021790555050565b3373ffffffffffffffffffffffffffffffffffffffff166005600085815260200190815260200160002060009054906101000a900473ffffffffffffffffffffffffffffffffffffffff1673ffffffffffffffffffffffffffffffffffffffff16146104cf57600080fd5b60006004848154811061050b577f4e487b7100000000000000000000000000000000000000000000000000000000600052603260045260246000fd5b906000526020600020906003020190506002548361052991906112cb565b92506000600284836001015461053f91906110ca565b6105499190611120565b905060405160200161055a90610f5d565b60405160208183030381529060405280519060200120836040516020016105819190610f46565b6040516020818303038152906040528051906020012014156105c45760636064826105ac91906112cb565b826105b79190611151565b6105c191906110ca565b90505b6106036040518060400160405280600481526020017f6e616d6500000000000000000000000000000000000000000000000000000000815250826107f7565b5050505050565b610612610783565b61061b57600080fd5b600073ffffffffffffffffffffffffffffffffffffffff1660008054906101000a900473ffffffffffffffffffffffffffffffffffffffff1673ffffffffffffffffffffffffffffffffffffffff167f8be0079c531659141344cd1fd0a4f28419497f9722a3daafe3b4186f6b6457e060405160405180910390a360008060006101000a81548173ffffffffffffffffffffffffffffffffffffffff021916908373ffffffffffffffffffffffffffffffffffffffff160217905550565b6000600660003373ffffffffffffffffffffffffffffffffffffffff1673ffffffffffffffffffffffffffffffffffffffff168152602001908152602001600020541461072557600080fd5b6000610730826109d1565b905060648161073f91906112cb565b8161074a9190611151565b905061075682826107f7565b5050565b60008060009054906101000a900473ffffffffffffffffffffffffffffffffffffffff16905090565b60008060009054906101000a900473ffffffffffffffffffffffffffffffffffffffff1673ffffffffffffffffffffffffffffffffffffffff163373ffffffffffffffffffffffffffffffffffffffff1614905090565b6107e2610783565b6107eb57600080fd5b6107f481610a16565b50565b60046040518060800160405280848152602001838152602001600163ffffffff1681526020016003544261082b91906110ca565b63ffffffff1681525090806001815401808255809150506001900390600052602060002090600302016000909190919091506000820151816000019080519060200190610879929190610b0d565b506020820151816001015560408201518160020160006101000a81548163ffffffff021916908363ffffffff16021790555060608201518160020160046101000a81548163ffffffff021916908363ffffffff1602179055505050600060016004805490506108e89190611151565b9050336005600083815260200190815260200160002060006101000a81548173ffffffffffffffffffffffffffffffffffffffff021916908373ffffffffffffffffffffffffffffffffffffffff160217905550600660003373ffffffffffffffffffffffffffffffffffffffff1673ffffffffffffffffffffffffffffffffffffffff168152602001908152602001600020600081548092919061098c90611282565b91905055507f88f026aacbbecc90c18411df4b1185fd8d9be2470f1962f192bf84a27d0704b78184846040516109c49392919061100f565b60405180910390a1505050565b600080826040516020016109e59190610f46565b6040516020818303038152906040528051906020012060001c905060025481610a0e91906112cb565b915050919050565b600073ffffffffffffffffffffffffffffffffffffffff168173ffffffffffffffffffffffffffffffffffffffff161415610a5057600080fd5b8073ffffffffffffffffffffffffffffffffffffffff1660008054906101000a900473ffffffffffffffffffffffffffffffffffffffff1673ffffffffffffffffffffffffffffffffffffffff167f8be0079c531659141344cd1fd0a4f28419497f9722a3daafe3b4186f6b6457e060405160405180910390a3806000806101000a81548173ffffffffffffffffffffffffffffffffffffffff021916908373ffffffffffffffffffffffffffffffffffffffff16021790555050565b828054610b199061121f565b90600052602060002090601f016020900481019282610b3b5760008555610b82565b82601f10610b5457805160ff1916838001178555610b82565b82800160010185558215610b82579182015b82811115610b81578251825591602001919060010190610b66565b5b509050610b8f9190610b93565b5090565b5b80821115610bac576000816000905550600101610b94565b5090565b6000610bc3610bbe84611072565b61104d565b905082815260208101848484011115610bdb57600080fd5b610be68482856111dd565b509392505050565b600081359050610bfd816113f2565b92915050565b600081519050610c1281611409565b92915050565b600082601f830112610c2957600080fd5b8135610c39848260208601610bb0565b91505092915050565b600081359050610c5181611420565b92915050565b600081519050610c6681611420565b92915050565b600060208284031215610c7e57600080fd5b6000610c8c84828501610bee565b91505092915050565b6000806000806000806000806000806101408b8d031215610cb557600080fd5b6000610cc38d828e01610c03565b9a50506020610cd48d828e01610c03565b9950506040610ce58d828e01610c57565b9850506060610cf68d828e01610c57565b9750506080610d078d828e01610c57565b96505060a0610d188d828e01610c57565b95505060c0610d298d828e01610c57565b94505060e0610d3a8d828e01610c57565b935050610100610d4c8d828e01610c57565b925050610120610d5e8d828e01610c57565b9150509295989b9194979a5092959850565b600060208284031215610d8257600080fd5b600082013567ffffffffffffffff811115610d9c57600080fd5b610da884828501610c18565b91505092915050565b600060208284031215610dc357600080fd5b6000610dd184828501610c42565b91505092915050565b60008060408385031215610ded57600080fd5b6000610dfb85828601610c42565b9250506020610e0c85828601610c42565b9150509250929050565b600080600060608486031215610e2b57600080fd5b6000610e3986828701610c42565b9350506020610e4a86828701610c42565b925050604084013567ffffffffffffffff811115610e6757600080fd5b610e7386828701610c18565b9150509250925092565b610e8681611185565b82525050565b610e9581611197565b82525050565b6000610ea6826110a3565b610eb081856110ae565b9350610ec08185602086016111ec565b610ec9816113b8565b840191505092915050565b6000610edf826110a3565b610ee981856110bf565b9350610ef98185602086016111ec565b80840191505092915050565b6000610f126005836110bf565b9150610f1d826113c9565b600582019050919050565b610f31816111c3565b82525050565b610f40816111cd565b82525050565b6000610f528284610ed4565b915081905092915050565b6000610f6882610f05565b9150819050919050565b6000602082019050610f876000830184610e7d565b92915050565b6000602082019050610fa26000830184610e8c565b92915050565b60006080820190508181036000830152610fc28187610e9b565b9050610fd16020830186610f28565b610fde6040830185610f37565b610feb6060830184610f37565b95945050505050565b60006020820190506110096000830184610f28565b92915050565b60006060820190506110246000830186610f28565b81810360208301526110368185610e9b565b90506110456040830184610f28565b949350505050565b6000611057611068565b90506110638282611251565b919050565b6000604051905090565b600067ffffffffffffffff82111561108d5761108c611389565b5b611096826113b8565b9050602081019050919050565b600081519050919050565b600082825260208201905092915050565b600081905092915050565b60006110d5826111c3565b91506110e0836111c3565b9250827fffffffffffffffffffffffffffffffffffffffffffffffffffffffffffffffff03821115611115576111146112fc565b5b828201905092915050565b600061112b826111c3565b9150611136836111c3565b9250826111465761114561132b565b5b828204905092915050565b600061115c826111c3565b9150611167836111c3565b92508282101561117a576111796112fc565b5b828203905092915050565b6000611190826111a3565b9050919050565b60008115159050919050565b600073ffffffffffffffffffffffffffffffffffffffff82169050919050565b6000819050919050565b600063ffffffff82169050919050565b82818337600083830152505050565b60005b8381101561120a5780820151818401526020810190506111ef565b83811115611219576000848401525b50505050565b6000600282049050600182168061123757607f821691505b6020821081141561124b5761124a61135a565b5b50919050565b61125a826113b8565b810181811067ffffffffffffffff8211171561127957611278611389565b5b80604052505050565b600061128d826111c3565b91507fffffffffffffffffffffffffffffffffffffffffffffffffffffffffffffffff8214156112c0576112bf6112fc565b5b600182019050919050565b60006112d6826111c3565b91506112e1836111c3565b9250826112f1576112f061132b565b5b828206905092915050565b7f4e487b7100000000000000000000000000000000000000000000000000000000600052601160045260246000fd5b7f4e487b7100000000000000000000000000000000000000000000000000000000600052601260045260246000fd5b7f4e487b7100000000000000000000000000000000000000000000000000000000600052602260045260246000fd5b7f4e487b7100000000000000000000000000000000000000000000000000000000600052604160045260246000fd5b6000601f19601f8301169050919050565b7f6b69747479000000000000000000000000000000000000000000000000000000600082015250565b6113fb81611185565b811461140657600080fd5b50565b61141281611197565b811461141d57600080fd5b50565b611429816111c3565b811461143457600080fd5b5056fea2646970667358221220b7a239d4ddd8d27943bff100125bba7ccbcf78487767bdf7eeedd3b1544b761864736f6c63430008040033",
  "immutableReferences": {},
  "source": "// SPDX-License-Identifier: MIT\npragma solidity >=0.5.0 <0.9.0;\nimport './ZombieFactory.sol';\n\n abstract contract KittyInterface {\n  function getKitty(uint256 _id) virtual external view returns (\n    bool isGestating,\n    bool isReady,\n    uint256 cooldownIndex,\n    uint256 nextActionAt,\n    uint256 siringWithId,\n    uint256 birthTime,\n    uint256 matronId,\n    uint256 sireId,\n    uint256 generation,\n    uint256 genes\n  );\n}\n\ncontract ZombieFeeding is ZombieFactory{\n\n  KittyInterface kittyContract;\n\n  function setKittyContractAddress(address _address) external {\n   kittyContract = KittyInterface(_address);\n  }\n\n  function feedAndMultiply(uint _zombieId, uint _targetDna, string memory _species) public{\n    require(zombieToOwner[_zombieId] == msg.sender);\n    \n    Zombie storage myZombie = zombies[_zombieId];\n    _targetDna = _targetDna % dnaModulus;\n    uint newDna = (myZombie.dna + _targetDna) / 2;\n\n    if(keccak256(abi.encodePacked(_species)) == keccak256(abi.encodePacked(\"kitty\"))){\n       newDna = newDna - newDna % 100 + 99;\n    }\n\n     _createZombie(\"name\", newDna);\n  }\n\n  function feedOnKitty(uint _zombieId, uint _kittyId) public {\n    uint kittyDna;\n     (,,,,,,,,,kittyDna) = kittyContract.getKitty(_kittyId);\n    feedAndMultiply(_zombieId, kittyDna, \"kitty\");\n  }\n\n}",
  "sourcePath": "/Users/pedrolucinda/Desktop/repositories/solidty/cryptozombies/contracts/ZombieFeeding.sol",
  "compiler": {
    "name": "solc",
    "version": "0.8.4+commit.c7e474f2.Emscripten.clang"
  },
  "schemaVersion": "3.4.6",
  "updatedAt": "2022-03-31T00:57:02.380Z",
  "networkType": "ethereum",
  "devdoc": {
    "kind": "dev",
    "methods": {
      "isOwner()": {
        "returns": {
          "_0": "true if `msg.sender` is the owner of the contract."
        }
      },
      "owner()": {
        "returns": {
          "_0": "the address of the owner."
        }
      },
      "renounceOwnership()": {
        "details": "Allows the current owner to relinquish control of the contract."
      },
      "transferOwnership(address)": {
        "details": "Allows the current owner to transfer control of the contract to a newOwner.",
        "params": {
          "newOwner": "The address to transfer ownership to."
        }
      }
    },
    "version": 1
  },
  "userdoc": {
    "kind": "user",
    "methods": {
      "renounceOwnership()": {
        "notice": "Renouncing to ownership will leave the contract without an owner. It will not be possible to call the functions with the `onlyOwner` modifier anymore."
      }
    },
    "version": 1
  }
}